{
  "contractName": "AgriBlock",
  "abi": [
    {
      "inputs": [],
      "stateMutability": "nonpayable",
      "type": "constructor"
    },
    {
      "anonymous": false,
      "inputs": [
        {
          "indexed": true,
          "internalType": "address",
          "name": "_from",
          "type": "address"
        },
        {
          "indexed": true,
          "internalType": "address",
          "name": "_to",
          "type": "address"
        },
        {
          "components": [
            {
              "internalType": "string",
              "name": "product_name",
              "type": "string"
            },
            {
              "internalType": "uint256",
              "name": "product_quantity",
              "type": "uint256"
            },
            {
              "internalType": "uint256",
              "name": "price",
              "type": "uint256"
            },
            {
              "internalType": "string",
              "name": "_dateOfPlant",
              "type": "string"
            },
            {
              "internalType": "string",
              "name": "_harvestDate",
              "type": "string"
            },
            {
              "internalType": "address",
              "name": "_owner",
              "type": "address"
            },
            {
              "internalType": "uint256",
              "name": "count",
              "type": "uint256"
            }
          ],
          "indexed": false,
          "internalType": "struct ERC721.Products",
          "name": "product_Transferred",
          "type": "tuple"
        }
      ],
      "name": "Transfer",
      "type": "event"
    },
    {
      "inputs": [
        {
          "internalType": "address",
          "name": "_seller",
          "type": "address"
        },
        {
          "internalType": "uint256",
          "name": "_index",
          "type": "uint256"
        }
      ],
      "name": "AcceptOrder",
      "outputs": [],
      "stateMutability": "view",
      "type": "function",
      "constant": true
    },
    {
      "inputs": [
        {
          "internalType": "address",
          "name": "_buyer",
          "type": "address"
        },
        {
          "internalType": "uint256",
          "name": "_index",
          "type": "uint256"
        },
        {
          "internalType": "address",
          "name": "_owner",
          "type": "address"
        }
      ],
      "name": "AddOrder",
      "outputs": [],
      "stateMutability": "nonpayable",
      "type": "function"
    },
    {
      "inputs": [
        {
          "internalType": "address payable",
          "name": "_to",
          "type": "address"
        },
        {
          "internalType": "uint256",
          "name": "value",
          "type": "uint256"
        }
      ],
      "name": "BuyCommodity",
      "outputs": [
        {
          "internalType": "bool",
          "name": "",
          "type": "bool"
        },
        {
          "internalType": "bytes",
          "name": "",
          "type": "bytes"
        }
      ],
      "stateMutability": "payable",
      "type": "function",
      "payable": true
    },
    {
      "inputs": [
        {
          "internalType": "uint256",
          "name": "_index",
          "type": "uint256"
        },
        {
          "internalType": "address payable",
          "name": "_seller",
          "type": "address"
        },
        {
          "internalType": "address",
          "name": "_buyer",
          "type": "address"
        }
      ],
      "name": "ProceedCheckOut",
      "outputs": [],
      "stateMutability": "nonpayable",
      "type": "function"
    },
    {
      "inputs": [
        {
          "internalType": "address",
          "name": "_owner",
          "type": "address"
        }
      ],
      "name": "balanceOf",
      "outputs": [
        {
          "components": [
            {
              "internalType": "string",
              "name": "product_name",
              "type": "string"
            },
            {
              "internalType": "uint256",
              "name": "product_quantity",
              "type": "uint256"
            },
            {
              "internalType": "uint256",
              "name": "price",
              "type": "uint256"
            },
            {
              "internalType": "string",
              "name": "_dateOfPlant",
              "type": "string"
            },
            {
              "internalType": "string",
              "name": "_harvestDate",
              "type": "string"
            },
            {
              "internalType": "address",
              "name": "_owner",
              "type": "address"
            },
            {
              "internalType": "uint256",
              "name": "count",
              "type": "uint256"
            }
          ],
          "internalType": "struct ERC721.Products[]",
          "name": "",
          "type": "tuple[]"
        }
      ],
      "stateMutability": "view",
      "type": "function",
      "constant": true
    },
    {
      "inputs": [
        {
          "internalType": "address",
          "name": "_buyer",
          "type": "address"
        }
      ],
      "name": "check_orders",
      "outputs": [
        {
          "components": [
            {
              "components": [
                {
                  "internalType": "string",
                  "name": "product_name",
                  "type": "string"
                },
                {
                  "internalType": "uint256",
                  "name": "product_quantity",
                  "type": "uint256"
                },
                {
                  "internalType": "uint256",
                  "name": "price",
                  "type": "uint256"
                },
                {
                  "internalType": "string",
                  "name": "_dateOfPlant",
                  "type": "string"
                },
                {
                  "internalType": "string",
                  "name": "_harvestDate",
                  "type": "string"
                },
                {
                  "internalType": "address",
                  "name": "_owner",
                  "type": "address"
                },
                {
                  "internalType": "uint256",
                  "name": "count",
                  "type": "uint256"
                }
              ],
              "internalType": "struct ERC721.Products",
              "name": "agricultureProducts",
              "type": "tuple"
            },
            {
              "internalType": "address",
              "name": "buyer",
              "type": "address"
            },
            {
              "internalType": "enum ERC721.State",
              "name": "_orderstate",
              "type": "uint8"
            }
          ],
          "internalType": "struct ERC721.OrdersStruct[]",
          "name": "",
          "type": "tuple[]"
        }
      ],
      "stateMutability": "view",
      "type": "function",
      "constant": true
    },
    {
      "inputs": [
        {
          "internalType": "address",
          "name": "",
          "type": "address"
        }
      ],
      "name": "isMember",
      "outputs": [
        {
          "internalType": "bool",
          "name": "",
          "type": "bool"
        }
      ],
      "stateMutability": "view",
      "type": "function",
      "constant": true
    },
    {
      "inputs": [
        {
          "internalType": "address",
          "name": "_owner",
          "type": "address"
        },
        {
          "internalType": "string",
          "name": "product_name",
          "type": "string"
        },
        {
          "internalType": "uint256",
          "name": "product_quantity",
          "type": "uint256"
        },
        {
          "internalType": "uint256",
          "name": "price",
          "type": "uint256"
        },
        {
          "internalType": "string",
          "name": "_dateOfPlant",
          "type": "string"
        },
        {
          "internalType": "string",
          "name": "_harvestDate",
          "type": "string"
        }
      ],
      "name": "mint",
      "outputs": [],
      "stateMutability": "nonpayable",
      "type": "function"
    },
    {
      "inputs": [
        {
          "internalType": "uint256",
          "name": "",
          "type": "uint256"
        }
      ],
      "name": "product",
      "outputs": [
        {
          "internalType": "string",
          "name": "product_name",
          "type": "string"
        },
        {
          "internalType": "uint256",
          "name": "product_quantity",
          "type": "uint256"
        },
        {
          "internalType": "uint256",
          "name": "price",
          "type": "uint256"
        },
        {
          "internalType": "string",
          "name": "_dateOfPlant",
          "type": "string"
        },
        {
          "internalType": "string",
          "name": "_harvestDate",
          "type": "string"
        },
        {
          "internalType": "address",
          "name": "_owner",
          "type": "address"
        },
        {
          "internalType": "uint256",
          "name": "count",
          "type": "uint256"
        }
      ],
      "stateMutability": "view",
      "type": "function",
      "constant": true
    },
    {
      "inputs": [
        {
          "internalType": "uint256",
          "name": "_index",
          "type": "uint256"
        }
      ],
      "name": "testArrayProduct",
      "outputs": [
        {
          "components": [
            {
              "internalType": "string",
              "name": "product_name",
              "type": "string"
            },
            {
              "internalType": "uint256",
              "name": "product_quantity",
              "type": "uint256"
            },
            {
              "internalType": "uint256",
              "name": "price",
              "type": "uint256"
            },
            {
              "internalType": "string",
              "name": "_dateOfPlant",
              "type": "string"
            },
            {
              "internalType": "string",
              "name": "_harvestDate",
              "type": "string"
            },
            {
              "internalType": "address",
              "name": "_owner",
              "type": "address"
            },
            {
              "internalType": "uint256",
              "name": "count",
              "type": "uint256"
            }
          ],
          "internalType": "struct ERC721.Products",
          "name": "",
          "type": "tuple"
        }
      ],
      "stateMutability": "nonpayable",
      "type": "function"
    },
    {
      "inputs": [
        {
          "internalType": "uint256",
          "name": "_index",
          "type": "uint256"
        }
      ],
      "name": "tokenByIndex",
      "outputs": [
        {
          "components": [
            {
              "internalType": "string",
              "name": "product_name",
              "type": "string"
            },
            {
              "internalType": "uint256",
              "name": "product_quantity",
              "type": "uint256"
            },
            {
              "internalType": "uint256",
              "name": "price",
              "type": "uint256"
            },
            {
              "internalType": "string",
              "name": "_dateOfPlant",
              "type": "string"
            },
            {
              "internalType": "string",
              "name": "_harvestDate",
              "type": "string"
            },
            {
              "internalType": "address",
              "name": "_owner",
              "type": "address"
            },
            {
              "internalType": "uint256",
              "name": "count",
              "type": "uint256"
            }
          ],
          "internalType": "struct ERC721.Products",
          "name": "",
          "type": "tuple"
        }
      ],
      "stateMutability": "view",
      "type": "function",
      "constant": true
    },
    {
      "inputs": [
        {
          "internalType": "address",
          "name": "_owner",
          "type": "address"
        },
        {
          "internalType": "uint256",
          "name": "_index",
          "type": "uint256"
        }
      ],
      "name": "tokenOfOwnerByIndex",
      "outputs": [
        {
          "components": [
            {
              "internalType": "string",
              "name": "product_name",
              "type": "string"
            },
            {
              "internalType": "uint256",
              "name": "product_quantity",
              "type": "uint256"
            },
            {
              "internalType": "uint256",
              "name": "price",
              "type": "uint256"
            },
            {
              "internalType": "string",
              "name": "_dateOfPlant",
              "type": "string"
            },
            {
              "internalType": "string",
              "name": "_harvestDate",
              "type": "string"
            },
            {
              "internalType": "address",
              "name": "_owner",
              "type": "address"
            },
            {
              "internalType": "uint256",
              "name": "count",
              "type": "uint256"
            }
          ],
          "internalType": "struct ERC721.Products",
          "name": "",
          "type": "tuple"
        }
      ],
      "stateMutability": "view",
      "type": "function",
      "constant": true
    },
    {
      "inputs": [],
      "name": "totalCommodity",
      "outputs": [
        {
          "components": [
            {
              "internalType": "string",
              "name": "product_name",
              "type": "string"
            },
            {
              "internalType": "uint256",
              "name": "product_quantity",
              "type": "uint256"
            },
            {
              "internalType": "uint256",
              "name": "price",
              "type": "uint256"
            },
            {
              "internalType": "string",
              "name": "_dateOfPlant",
              "type": "string"
            },
            {
              "internalType": "string",
              "name": "_harvestDate",
              "type": "string"
            },
            {
              "internalType": "address",
              "name": "_owner",
              "type": "address"
            },
            {
              "internalType": "uint256",
              "name": "count",
              "type": "uint256"
            }
          ],
          "internalType": "struct ERC721.Products[]",
          "name": "",
          "type": "tuple[]"
        }
      ],
      "stateMutability": "view",
      "type": "function",
      "constant": true
    },
    {
      "inputs": [],
      "name": "totalSupply",
      "outputs": [
        {
          "internalType": "uint256",
          "name": "",
          "type": "uint256"
        }
      ],
      "stateMutability": "view",
      "type": "function",
      "constant": true
    },
    {
      "inputs": [
        {
          "internalType": "address",
          "name": "_from",
          "type": "address"
        },
        {
          "internalType": "address payable",
          "name": "_to",
          "type": "address"
        },
        {
          "internalType": "uint256",
          "name": "_index",
          "type": "uint256"
        }
      ],
      "name": "transferFrom",
      "outputs": [
        {
          "internalType": "bool",
          "name": "",
          "type": "bool"
        }
      ],
      "stateMutability": "payable",
      "type": "function",
      "payable": true
    }
  ],
  "bytecode": "0x608060405234801561001057600080fd5b5033600560006101000a81548173ffffffffffffffffffffffffffffffffffffffff021916908373ffffffffffffffffffffffffffffffffffffffff1602179055506147da806100616000396000f3fe6080604052600436106100e85760003560e01c806370a082311161008a578063a00fea1f11610059578063a00fea1f1461032b578063a230c52414610356578063c53da9fa14610393578063cadc3ec0146103bc576100e8565b806370a0823114610259578063780bd3f1146102965780639129b4ad146102d95780639527192f14610302576100e8565b80634f6ccce7116100c65780634f6ccce7146101855780635ecdf09e146101c2578063618a7a62146101eb578063659be7ae14610228576100e8565b806318160ddd146100ed57806323b872dd146101185780632f745c5914610148575b600080fd5b3480156100f957600080fd5b506101026103f9565b60405161010f919061370b565b60405180910390f35b610132600480360381019061012d9190613802565b610406565b60405161013f9190613870565b60405180910390f35b34801561015457600080fd5b5061016f600480360381019061016a919061388b565b610603565b60405161017c9190613a2c565b60405180910390f35b34801561019157600080fd5b506101ac60048036038101906101a79190613a4e565b6108a7565b6040516101b99190613a2c565b60405180910390f35b3480156101ce57600080fd5b506101e960048036038101906101e49190613a7b565b610b0d565b005b3480156101f757600080fd5b50610212600480360381019061020d9190613a4e565b610edf565b60405161021f9190613a2c565b60405180910390f35b610242600480360381019061023d9190613ace565b6111a2565b604051610250929190613b63565b60405180910390f35b34801561026557600080fd5b50610280600480360381019061027b9190613b93565b611223565b60405161028d9190613d2c565b60405180910390f35b3480156102a257600080fd5b506102bd60048036038101906102b89190613a4e565b61152b565b6040516102d09796959493929190613da7565b60405180910390f35b3480156102e557600080fd5b5061030060048036038101906102fb9190613fc0565b611735565b005b34801561030e57600080fd5b506103296004803603810190610324919061388b565b61191a565b005b34801561033757600080fd5b50610340611cc2565b60405161034d9190613d2c565b60405180910390f35b34801561036257600080fd5b5061037d60048036038101906103789190613b93565b611f4b565b60405161038a9190613870565b60405180910390f35b34801561039f57600080fd5b506103ba60048036038101906103b591906140ab565b611f6b565b005b3480156103c857600080fd5b506103e360048036038101906103de9190613b93565b6123be565b6040516103f09190614287565b60405180910390f35b6000600280549050905090565b60008073ffffffffffffffffffffffffffffffffffffffff168473ffffffffffffffffffffffffffffffffffffffff161415610477576040517f08c379a000000000000000000000000000000000000000000000000000000000815260040161046e906142f5565b60405180910390fd5b600073ffffffffffffffffffffffffffffffffffffffff168373ffffffffffffffffffffffffffffffffffffffff1614156104e7576040517f08c379a00000000000000000000000000000000000000000000000000000000081526004016104de90614361565b60405180910390fd5b8373ffffffffffffffffffffffffffffffffffffffff168373ffffffffffffffffffffffffffffffffffffffff161415610556576040517f08c379a000000000000000000000000000000000000000000000000000000000815260040161054d906143cd565b60405180910390fd5b60011515600460008673ffffffffffffffffffffffffffffffffffffffff1673ffffffffffffffffffffffffffffffffffffffff16815260200190815260200160002060009054906101000a900460ff161515146105e9576040517f08c379a00000000000000000000000000000000000000000000000000000000081526004016105e090614439565b60405180910390fd5b60006105f685858561272b565b9050809150509392505050565b61060b61352f565b600360008473ffffffffffffffffffffffffffffffffffffffff1673ffffffffffffffffffffffffffffffffffffffff168152602001908152602001600020828154811061065c5761065b614459565b5b90600052602060002090600702016040518060e0016040529081600082018054610685906144b7565b80601f01602080910402602001604051908101604052809291908181526020018280546106b1906144b7565b80156106fe5780601f106106d3576101008083540402835291602001916106fe565b820191906000526020600020905b8154815290600101906020018083116106e157829003601f168201915b50505050508152602001600182015481526020016002820154815260200160038201805461072b906144b7565b80601f0160208091040260200160405190810160405280929190818152602001828054610757906144b7565b80156107a45780601f10610779576101008083540402835291602001916107a4565b820191906000526020600020905b81548152906001019060200180831161078757829003601f168201915b505050505081526020016004820180546107bd906144b7565b80601f01602080910402602001604051908101604052809291908181526020018280546107e9906144b7565b80156108365780601f1061080b57610100808354040283529160200191610836565b820191906000526020600020905b81548152906001019060200180831161081957829003601f168201915b505050505081526020016005820160009054906101000a900473ffffffffffffffffffffffffffffffffffffffff1673ffffffffffffffffffffffffffffffffffffffff1673ffffffffffffffffffffffffffffffffffffffff168152602001600682015481525050905092915050565b6108af61352f565b600282815481106108c3576108c2614459565b5b90600052602060002090600702016040518060e00160405290816000820180546108ec906144b7565b80601f0160208091040260200160405190810160405280929190818152602001828054610918906144b7565b80156109655780601f1061093a57610100808354040283529160200191610965565b820191906000526020600020905b81548152906001019060200180831161094857829003601f168201915b505050505081526020016001820154815260200160028201548152602001600382018054610992906144b7565b80601f01602080910402602001604051908101604052809291908181526020018280546109be906144b7565b8015610a0b5780601f106109e057610100808354040283529160200191610a0b565b820191906000526020600020905b8154815290600101906020018083116109ee57829003601f168201915b50505050508152602001600482018054610a24906144b7565b80601f0160208091040260200160405190810160405280929190818152602001828054610a50906144b7565b8015610a9d5780601f10610a7257610100808354040283529160200191610a9d565b820191906000526020600020905b815481529060010190602001808311610a8057829003601f168201915b505050505081526020016005820160009054906101000a900473ffffffffffffffffffffffffffffffffffffffff1673ffffffffffffffffffffffffffffffffffffffff1673ffffffffffffffffffffffffffffffffffffffff1681526020016006820154815250509050919050565b6000600160008473ffffffffffffffffffffffffffffffffffffffff1673ffffffffffffffffffffffffffffffffffffffff1681526020019081526020016000208481548110610b6057610b5f614459565b5b9060005260206000209060080201604051806060016040529081600082016040518060e0016040529081600082018054610b99906144b7565b80601f0160208091040260200160405190810160405280929190818152602001828054610bc5906144b7565b8015610c125780601f10610be757610100808354040283529160200191610c12565b820191906000526020600020905b815481529060010190602001808311610bf557829003601f168201915b505050505081526020016001820154815260200160028201548152602001600382018054610c3f906144b7565b80601f0160208091040260200160405190810160405280929190818152602001828054610c6b906144b7565b8015610cb85780601f10610c8d57610100808354040283529160200191610cb8565b820191906000526020600020905b815481529060010190602001808311610c9b57829003601f168201915b50505050508152602001600482018054610cd1906144b7565b80601f0160208091040260200160405190810160405280929190818152602001828054610cfd906144b7565b8015610d4a5780601f10610d1f57610100808354040283529160200191610d4a565b820191906000526020600020905b815481529060010190602001808311610d2d57829003601f168201915b505050505081526020016005820160009054906101000a900473ffffffffffffffffffffffffffffffffffffffff1673ffffffffffffffffffffffffffffffffffffffff1673ffffffffffffffffffffffffffffffffffffffff16815260200160068201548152505081526020016007820160009054906101000a900473ffffffffffffffffffffffffffffffffffffffff1673ffffffffffffffffffffffffffffffffffffffff1673ffffffffffffffffffffffffffffffffffffffff1681526020016007820160149054906101000a900460ff166004811115610e3257610e3161412a565b5b6004811115610e4457610e4361412a565b5b81525050905060026004811115610e5e57610e5d61412a565b5b81604001516004811115610e7557610e7461412a565b5b14610e7f57600080fd5b610e91838260000151604001516111a2565b5050610e9e828486610406565b50600381604001906004811115610eb857610eb761412a565b5b90816004811115610ecc57610ecb61412a565b5b81525050610ed984612d53565b50505050565b610ee761352f565b600060028381548110610efd57610efc614459565b5b90600052602060002090600702019050731c9264bd829884899dc15397bec23113bcec39828160050160006101000a81548173ffffffffffffffffffffffffffffffffffffffff021916908373ffffffffffffffffffffffffffffffffffffffff160217905550806040518060e0016040529081600082018054610f80906144b7565b80601f0160208091040260200160405190810160405280929190818152602001828054610fac906144b7565b8015610ff95780601f10610fce57610100808354040283529160200191610ff9565b820191906000526020600020905b815481529060010190602001808311610fdc57829003601f168201915b505050505081526020016001820154815260200160028201548152602001600382018054611026906144b7565b80601f0160208091040260200160405190810160405280929190818152602001828054611052906144b7565b801561109f5780601f106110745761010080835404028352916020019161109f565b820191906000526020600020905b81548152906001019060200180831161108257829003601f168201915b505050505081526020016004820180546110b8906144b7565b80601f01602080910402602001604051908101604052809291908181526020018280546110e4906144b7565b80156111315780601f1061110657610100808354040283529160200191611131565b820191906000526020600020905b81548152906001019060200180831161111457829003601f168201915b505050505081526020016005820160009054906101000a900473ffffffffffffffffffffffffffffffffffffffff1673ffffffffffffffffffffffffffffffffffffffff1673ffffffffffffffffffffffffffffffffffffffff168152602001600682015481525050915050919050565b600060606000808573ffffffffffffffffffffffffffffffffffffffff16856040516111cd9061451a565b60006040518083038185875af1925050503d806000811461120a576040519150601f19603f3d011682016040523d82523d6000602084013e61120f565b606091505b509150915081819350935050509250929050565b6060600073ffffffffffffffffffffffffffffffffffffffff168273ffffffffffffffffffffffffffffffffffffffff16141561125f57600080fd5b6000600360008473ffffffffffffffffffffffffffffffffffffffff1673ffffffffffffffffffffffffffffffffffffffff168152602001908152602001600020905080805480602002602001604051908101604052809291908181526020016000905b8282101561151f57838290600052602060002090600702016040518060e00160405290816000820180546112f6906144b7565b80601f0160208091040260200160405190810160405280929190818152602001828054611322906144b7565b801561136f5780601f106113445761010080835404028352916020019161136f565b820191906000526020600020905b81548152906001019060200180831161135257829003601f168201915b50505050508152602001600182015481526020016002820154815260200160038201805461139c906144b7565b80601f01602080910402602001604051908101604052809291908181526020018280546113c8906144b7565b80156114155780601f106113ea57610100808354040283529160200191611415565b820191906000526020600020905b8154815290600101906020018083116113f857829003601f168201915b5050505050815260200160048201805461142e906144b7565b80601f016020809104026020016040519081016040528092919081815260200182805461145a906144b7565b80156114a75780601f1061147c576101008083540402835291602001916114a7565b820191906000526020600020905b81548152906001019060200180831161148a57829003601f168201915b505050505081526020016005820160009054906101000a900473ffffffffffffffffffffffffffffffffffffffff1673ffffffffffffffffffffffffffffffffffffffff1673ffffffffffffffffffffffffffffffffffffffff168152602001600682015481525050815260200190600101906112c3565b50505050915050919050565b6002818154811061153b57600080fd5b906000526020600020906007020160009150905080600001805461155e906144b7565b80601f016020809104026020016040519081016040528092919081815260200182805461158a906144b7565b80156115d75780601f106115ac576101008083540402835291602001916115d7565b820191906000526020600020905b8154815290600101906020018083116115ba57829003601f168201915b5050505050908060010154908060020154908060030180546115f8906144b7565b80601f0160208091040260200160405190810160405280929190818152602001828054611624906144b7565b80156116715780601f1061164657610100808354040283529160200191611671565b820191906000526020600020905b81548152906001019060200180831161165457829003601f168201915b505050505090806004018054611686906144b7565b80601f01602080910402602001604051908101604052809291908181526020018280546116b2906144b7565b80156116ff5780601f106116d4576101008083540402835291602001916116ff565b820191906000526020600020905b8154815290600101906020018083116116e257829003601f168201915b5050505050908060050160009054906101000a900473ffffffffffffffffffffffffffffffffffffffff16908060060154905087565b60006040518060e0016040528089815260200188815260200187815260200186868080601f016020809104026020016040519081016040528093929190818152602001838380828437600081840152601f19601f82011690508083019250505050505050815260200184848080601f016020809104026020016040519081016040528093929190818152602001838380828437600081840152601f19601f8201169050808301925050505050505081526020018a73ffffffffffffffffffffffffffffffffffffffff1681526020016001600280549050611816919061455e565b815250905060028190806001815401808255809150506001900390600052602060002090600702016000909190919091506000820151816000019080519060200190611863929190613582565b5060208201518160010155604082015181600201556060820151816003019080519060200190611894929190613582565b5060808201518160040190805190602001906118b1929190613582565b5060a08201518160050160006101000a81548173ffffffffffffffffffffffffffffffffffffffff021916908373ffffffffffffffffffffffffffffffffffffffff16021790555060c08201518160060155505061190f8982612f5b565b505050505050505050565b6000600160008473ffffffffffffffffffffffffffffffffffffffff1673ffffffffffffffffffffffffffffffffffffffff168152602001908152602001600020828154811061196d5761196c614459565b5b9060005260206000209060080201604051806060016040529081600082016040518060e00160405290816000820180546119a6906144b7565b80601f01602080910402602001604051908101604052809291908181526020018280546119d2906144b7565b8015611a1f5780601f106119f457610100808354040283529160200191611a1f565b820191906000526020600020905b815481529060010190602001808311611a0257829003601f168201915b505050505081526020016001820154815260200160028201548152602001600382018054611a4c906144b7565b80601f0160208091040260200160405190810160405280929190818152602001828054611a78906144b7565b8015611ac55780601f10611a9a57610100808354040283529160200191611ac5565b820191906000526020600020905b815481529060010190602001808311611aa857829003601f168201915b50505050508152602001600482018054611ade906144b7565b80601f0160208091040260200160405190810160405280929190818152602001828054611b0a906144b7565b8015611b575780601f10611b2c57610100808354040283529160200191611b57565b820191906000526020600020905b815481529060010190602001808311611b3a57829003601f168201915b505050505081526020016005820160009054906101000a900473ffffffffffffffffffffffffffffffffffffffff1673ffffffffffffffffffffffffffffffffffffffff1673ffffffffffffffffffffffffffffffffffffffff16815260200160068201548152505081526020016007820160009054906101000a900473ffffffffffffffffffffffffffffffffffffffff1673ffffffffffffffffffffffffffffffffffffffff1673ffffffffffffffffffffffffffffffffffffffff1681526020016007820160149054906101000a900460ff166004811115611c3f57611c3e61412a565b5b6004811115611c5157611c5061412a565b5b81525050905060016004811115611c6b57611c6a61412a565b5b81604001516004811115611c8257611c8161412a565b5b14611c8c57600080fd5b600281604001906004811115611ca557611ca461412a565b5b90816004811115611cb957611cb861412a565b5b81525050505050565b60606002805480602002602001604051908101604052809291908181526020016000905b82821015611f4257838290600052602060002090600702016040518060e0016040529081600082018054611d19906144b7565b80601f0160208091040260200160405190810160405280929190818152602001828054611d45906144b7565b8015611d925780601f10611d6757610100808354040283529160200191611d92565b820191906000526020600020905b815481529060010190602001808311611d7557829003601f168201915b505050505081526020016001820154815260200160028201548152602001600382018054611dbf906144b7565b80601f0160208091040260200160405190810160405280929190818152602001828054611deb906144b7565b8015611e385780601f10611e0d57610100808354040283529160200191611e38565b820191906000526020600020905b815481529060010190602001808311611e1b57829003601f168201915b50505050508152602001600482018054611e51906144b7565b80601f0160208091040260200160405190810160405280929190818152602001828054611e7d906144b7565b8015611eca5780601f10611e9f57610100808354040283529160200191611eca565b820191906000526020600020905b815481529060010190602001808311611ead57829003601f168201915b505050505081526020016005820160009054906101000a900473ffffffffffffffffffffffffffffffffffffffff1673ffffffffffffffffffffffffffffffffffffffff1673ffffffffffffffffffffffffffffffffffffffff16815260200160068201548152505081526020019060010190611ce6565b50505050905090565b60046020528060005260406000206000915054906101000a900460ff1681565b6000600360008373ffffffffffffffffffffffffffffffffffffffff1673ffffffffffffffffffffffffffffffffffffffff1681526020019081526020016000208381548110611fbe57611fbd614459565b5b90600052602060002090600702016040518060e0016040529081600082018054611fe7906144b7565b80601f0160208091040260200160405190810160405280929190818152602001828054612013906144b7565b80156120605780601f1061203557610100808354040283529160200191612060565b820191906000526020600020905b81548152906001019060200180831161204357829003601f168201915b50505050508152602001600182015481526020016002820154815260200160038201805461208d906144b7565b80601f01602080910402602001604051908101604052809291908181526020018280546120b9906144b7565b80156121065780601f106120db57610100808354040283529160200191612106565b820191906000526020600020905b8154815290600101906020018083116120e957829003601f168201915b5050505050815260200160048201805461211f906144b7565b80601f016020809104026020016040519081016040528092919081815260200182805461214b906144b7565b80156121985780601f1061216d57610100808354040283529160200191612198565b820191906000526020600020905b81548152906001019060200180831161217b57829003601f168201915b505050505081526020016005820160009054906101000a900473ffffffffffffffffffffffffffffffffffffffff1673ffffffffffffffffffffffffffffffffffffffff1673ffffffffffffffffffffffffffffffffffffffff1681526020016006820154815250509050600060405180606001604052808381526020018673ffffffffffffffffffffffffffffffffffffffff168152602001600160048111156122465761224561412a565b5b81525090506000819080600181540180825580915050600190039060005260206000209060080201600090919091909150600082015181600001600082015181600001908051906020019061229c929190613582565b50602082015181600101556040820151816002015560608201518160030190805190602001906122cd929190613582565b5060808201518160040190805190602001906122ea929190613582565b5060a08201518160050160006101000a81548173ffffffffffffffffffffffffffffffffffffffff021916908373ffffffffffffffffffffffffffffffffffffffff16021790555060c08201518160060155505060208201518160070160006101000a81548173ffffffffffffffffffffffffffffffffffffffff021916908373ffffffffffffffffffffffffffffffffffffffff16021790555060408201518160070160146101000a81548160ff021916908360048111156123b0576123af61412a565b5b021790555050505050505050565b6060600160008373ffffffffffffffffffffffffffffffffffffffff1673ffffffffffffffffffffffffffffffffffffffff168152602001908152602001600020805480602002602001604051908101604052809291908181526020016000905b828210156127205783829060005260206000209060080201604051806060016040529081600082016040518060e0016040529081600082018054612462906144b7565b80601f016020809104026020016040519081016040528092919081815260200182805461248e906144b7565b80156124db5780601f106124b0576101008083540402835291602001916124db565b820191906000526020600020905b8154815290600101906020018083116124be57829003601f168201915b505050505081526020016001820154815260200160028201548152602001600382018054612508906144b7565b80601f0160208091040260200160405190810160405280929190818152602001828054612534906144b7565b80156125815780601f1061255657610100808354040283529160200191612581565b820191906000526020600020905b81548152906001019060200180831161256457829003601f168201915b5050505050815260200160048201805461259a906144b7565b80601f01602080910402602001604051908101604052809291908181526020018280546125c6906144b7565b80156126135780601f106125e857610100808354040283529160200191612613565b820191906000526020600020905b8154815290600101906020018083116125f657829003601f168201915b505050505081526020016005820160009054906101000a900473ffffffffffffffffffffffffffffffffffffffff1673ffffffffffffffffffffffffffffffffffffffff1673ffffffffffffffffffffffffffffffffffffffff16815260200160068201548152505081526020016007820160009054906101000a900473ffffffffffffffffffffffffffffffffffffffff1673ffffffffffffffffffffffffffffffffffffffff1673ffffffffffffffffffffffffffffffffffffffff1681526020016007820160149054906101000a900460ff1660048111156126fb576126fa61412a565b5b600481111561270d5761270c61412a565b5b815250508152602001906001019061241f565b505050509050919050565b6000806002838154811061274257612741614459565b5b90600052602060002090600702016040518060e001604052908160008201805461276b906144b7565b80601f0160208091040260200160405190810160405280929190818152602001828054612797906144b7565b80156127e45780601f106127b9576101008083540402835291602001916127e4565b820191906000526020600020905b8154815290600101906020018083116127c757829003601f168201915b505050505081526020016001820154815260200160028201548152602001600382018054612811906144b7565b80601f016020809104026020016040519081016040528092919081815260200182805461283d906144b7565b801561288a5780601f1061285f5761010080835404028352916020019161288a565b820191906000526020600020905b81548152906001019060200180831161286d57829003601f168201915b505050505081526020016004820180546128a3906144b7565b80601f01602080910402602001604051908101604052809291908181526020018280546128cf906144b7565b801561291c5780601f106128f15761010080835404028352916020019161291c565b820191906000526020600020905b8154815290600101906020018083116128ff57829003601f168201915b505050505081526020016005820160009054906101000a900473ffffffffffffffffffffffffffffffffffffffff1673ffffffffffffffffffffffffffffffffffffffff1673ffffffffffffffffffffffffffffffffffffffff16815260200160068201548152505090506000816040015114156129cf576040517f08c379a00000000000000000000000000000000000000000000000000000000081526004016129c690614600565b60405180910390fd5b600081602001511415612a17576040517f08c379a0000000000000000000000000000000000000000000000000000000008152600401612a0e9061466c565b60405180910390fd5b8473ffffffffffffffffffffffffffffffffffffffff168160a0015173ffffffffffffffffffffffffffffffffffffffff1614612a89576040517f08c379a0000000000000000000000000000000000000000000000000000000008152600401612a80906146d8565b60405180910390fd5b60008160c001519050612a9c86826130de565b848260a0019073ffffffffffffffffffffffffffffffffffffffff16908173ffffffffffffffffffffffffffffffffffffffff1681525050612add84613327565b60028290806001815401808255809150506001900390600052602060002090600702016000909190919091506000820151816000019080519060200190612b25929190613582565b5060208201518160010155604082015181600201556060820151816003019080519060200190612b56929190613582565b506080820151816004019080519060200190612b73929190613582565b5060a08201518160050160006101000a81548173ffffffffffffffffffffffffffffffffffffffff021916908373ffffffffffffffffffffffffffffffffffffffff16021790555060c0820151816006015550506001600460008773ffffffffffffffffffffffffffffffffffffffff1673ffffffffffffffffffffffffffffffffffffffff16815260200190815260200160002060006101000a81548160ff021916908315150217905550600360008673ffffffffffffffffffffffffffffffffffffffff1673ffffffffffffffffffffffffffffffffffffffff1681526020019081526020016000208290806001815401808255809150506001900390600052602060002090600702016000909190919091506000820151816000019080519060200190612ca4929190613582565b5060208201518160010155604082015181600201556060820151816003019080519060200190612cd5929190613582565b506080820151816004019080519060200190612cf2929190613582565b5060a08201518160050160006101000a81548173ffffffffffffffffffffffffffffffffffffffff021916908373ffffffffffffffffffffffffffffffffffffffff16021790555060c0820151816006015550506001925050509392505050565b60008190505b6001600280549050612d6b91906146f8565b811015612ebd576002600182612d81919061455e565b81548110612d9257612d91614459565b5b906000526020600020906007020160028281548110612db457612db3614459565b5b90600052602060002090600702016000820181600001908054612dd6906144b7565b612de1929190613608565b5060018201548160010155600282015481600201556003820181600301908054612e0a906144b7565b612e15929190613608565b506004820181600401908054612e2a906144b7565b612e35929190613608565b506005820160009054906101000a900473ffffffffffffffffffffffffffffffffffffffff168160050160006101000a81548173ffffffffffffffffffffffffffffffffffffffff021916908373ffffffffffffffffffffffffffffffffffffffff160217905550600682015481600601559050508080612eb59061472c565b915050612d59565b506002805480612ed057612ecf614775565b5b600190038181906000526020600020906007020160008082016000612ef59190613695565b60018201600090556002820160009055600382016000612f159190613695565b600482016000612f259190613695565b6005820160006101000a81549073ffffffffffffffffffffffffffffffffffffffff021916905560068201600090555050905550565b600360008373ffffffffffffffffffffffffffffffffffffffff1673ffffffffffffffffffffffffffffffffffffffff1681526020019081526020016000208190806001815401808255809150506001900390600052602060002090600702016000909190919091506000820151816000019080519060200190612fe0929190613582565b5060208201518160010155604082015181600201556060820151816003019080519060200190613011929190613582565b50608082015181600401908051906020019061302e929190613582565b5060a08201518160050160006101000a81548173ffffffffffffffffffffffffffffffffffffffff021916908373ffffffffffffffffffffffffffffffffffffffff16021790555060c0820151816006015550506001600460008473ffffffffffffffffffffffffffffffffffffffff1673ffffffffffffffffffffffffffffffffffffffff16815260200190815260200160002060006101000a81548160ff0219169083151502179055505050565b6000600360008473ffffffffffffffffffffffffffffffffffffffff1673ffffffffffffffffffffffffffffffffffffffff168152602001908152602001600020905060008290505b6001828054905061313891906146f8565b811015613288578160018261314d919061455e565b8154811061315e5761315d614459565b5b906000526020600020906007020182828154811061317f5761317e614459565b5b906000526020600020906007020160008201816000019080546131a1906144b7565b6131ac929190613608565b50600182015481600101556002820154816002015560038201816003019080546131d5906144b7565b6131e0929190613608565b5060048201816004019080546131f5906144b7565b613200929190613608565b506005820160009054906101000a900473ffffffffffffffffffffffffffffffffffffffff168160050160006101000a81548173ffffffffffffffffffffffffffffffffffffffff021916908373ffffffffffffffffffffffffffffffffffffffff1602179055506006820154816006015590505080806132809061472c565b915050613127565b508080548061329a57613299614775565b5b6001900381819060005260206000209060070201600080820160006132bf9190613695565b600182016000905560028201600090556003820160006132df9190613695565b6004820160006132ef9190613695565b6005820160006101000a81549073ffffffffffffffffffffffffffffffffffffffff0219169055600682016000905550509055505050565b60008190505b600160028054905061333f91906146f8565b811015613491576002600182613355919061455e565b8154811061336657613365614459565b5b90600052602060002090600702016002828154811061338857613387614459565b5b906000526020600020906007020160008201816000019080546133aa906144b7565b6133b5929190613608565b50600182015481600101556002820154816002015560038201816003019080546133de906144b7565b6133e9929190613608565b5060048201816004019080546133fe906144b7565b613409929190613608565b506005820160009054906101000a900473ffffffffffffffffffffffffffffffffffffffff168160050160006101000a81548173ffffffffffffffffffffffffffffffffffffffff021916908373ffffffffffffffffffffffffffffffffffffffff1602179055506006820154816006015590505080806134899061472c565b91505061332d565b5060028054806134a4576134a3614775565b5b6001900381819060005260206000209060070201600080820160006134c99190613695565b600182016000905560028201600090556003820160006134e99190613695565b6004820160006134f99190613695565b6005820160006101000a81549073ffffffffffffffffffffffffffffffffffffffff021916905560068201600090555050905550565b6040518060e001604052806060815260200160008152602001600081526020016060815260200160608152602001600073ffffffffffffffffffffffffffffffffffffffff168152602001600081525090565b82805461358e906144b7565b90600052602060002090601f0160209004810192826135b057600085556135f7565b82601f106135c957805160ff19168380011785556135f7565b828001600101855582156135f7579182015b828111156135f65782518255916020019190600101906135db565b5b50905061360491906136d5565b5090565b828054613614906144b7565b90600052602060002090601f0160209004810192826136365760008555613684565b82601f106136475780548555613684565b8280016001018555821561368457600052602060002091601f016020900482015b82811115613683578254825591600101919060010190613668565b5b50905061369191906136d5565b5090565b5080546136a1906144b7565b6000825580601f106136b357506136d2565b601f0160209004906000526020600020908101906136d191906136d5565b5b50565b5b808211156136ee5760008160009055506001016136d6565b5090565b6000819050919050565b613705816136f2565b82525050565b600060208201905061372060008301846136fc565b92915050565b6000604051905090565b600080fd5b600080fd5b600073ffffffffffffffffffffffffffffffffffffffff82169050919050565b60006137658261373a565b9050919050565b6137758161375a565b811461378057600080fd5b50565b6000813590506137928161376c565b92915050565b60006137a38261373a565b9050919050565b6137b381613798565b81146137be57600080fd5b50565b6000813590506137d0816137aa565b92915050565b6137df816136f2565b81146137ea57600080fd5b50565b6000813590506137fc816137d6565b92915050565b60008060006060848603121561381b5761381a613730565b5b600061382986828701613783565b935050602061383a868287016137c1565b925050604061384b868287016137ed565b9150509250925092565b60008115159050919050565b61386a81613855565b82525050565b60006020820190506138856000830184613861565b92915050565b600080604083850312156138a2576138a1613730565b5b60006138b085828601613783565b92505060206138c1858286016137ed565b9150509250929050565b600081519050919050565b600082825260208201905092915050565b60005b838110156139055780820151818401526020810190506138ea565b83811115613914576000848401525b50505050565b6000601f19601f8301169050919050565b6000613936826138cb565b61394081856138d6565b93506139508185602086016138e7565b6139598161391a565b840191505092915050565b61396d816136f2565b82525050565b61397c8161375a565b82525050565b600060e083016000830151848203600086015261399f828261392b565b91505060208301516139b46020860182613964565b5060408301516139c76040860182613964565b50606083015184820360608601526139df828261392b565b915050608083015184820360808601526139f9828261392b565b91505060a0830151613a0e60a0860182613973565b5060c0830151613a2160c0860182613964565b508091505092915050565b60006020820190508181036000830152613a468184613982565b905092915050565b600060208284031215613a6457613a63613730565b5b6000613a72848285016137ed565b91505092915050565b600080600060608486031215613a9457613a93613730565b5b6000613aa2868287016137ed565b9350506020613ab3868287016137c1565b9250506040613ac486828701613783565b9150509250925092565b60008060408385031215613ae557613ae4613730565b5b6000613af3858286016137c1565b9250506020613b04858286016137ed565b9150509250929050565b600081519050919050565b600082825260208201905092915050565b6000613b3582613b0e565b613b3f8185613b19565b9350613b4f8185602086016138e7565b613b588161391a565b840191505092915050565b6000604082019050613b786000830185613861565b8181036020830152613b8a8184613b2a565b90509392505050565b600060208284031215613ba957613ba8613730565b5b6000613bb784828501613783565b91505092915050565b600081519050919050565b600082825260208201905092915050565b6000819050602082019050919050565b600060e0830160008301518482036000860152613c09828261392b565b9150506020830151613c1e6020860182613964565b506040830151613c316040860182613964565b5060608301518482036060860152613c49828261392b565b91505060808301518482036080860152613c63828261392b565b91505060a0830151613c7860a0860182613973565b5060c0830151613c8b60c0860182613964565b508091505092915050565b6000613ca28383613bec565b905092915050565b6000602082019050919050565b6000613cc282613bc0565b613ccc8185613bcb565b935083602082028501613cde85613bdc565b8060005b85811015613d1a5784840389528151613cfb8582613c96565b9450613d0683613caa565b925060208a01995050600181019050613ce2565b50829750879550505050505092915050565b60006020820190508181036000830152613d468184613cb7565b905092915050565b600082825260208201905092915050565b6000613d6a826138cb565b613d748185613d4e565b9350613d848185602086016138e7565b613d8d8161391a565b840191505092915050565b613da18161375a565b82525050565b600060e0820190508181036000830152613dc1818a613d5f565b9050613dd060208301896136fc565b613ddd60408301886136fc565b8181036060830152613def8187613d5f565b90508181036080830152613e038186613d5f565b9050613e1260a0830185613d98565b613e1f60c08301846136fc565b98975050505050505050565b600080fd5b600080fd5b7f4e487b7100000000000000000000000000000000000000000000000000000000600052604160045260246000fd5b613e6d8261391a565b810181811067ffffffffffffffff82111715613e8c57613e8b613e35565b5b80604052505050565b6000613e9f613726565b9050613eab8282613e64565b919050565b600067ffffffffffffffff821115613ecb57613eca613e35565b5b613ed48261391a565b9050602081019050919050565b82818337600083830152505050565b6000613f03613efe84613eb0565b613e95565b905082815260208101848484011115613f1f57613f1e613e30565b5b613f2a848285613ee1565b509392505050565b600082601f830112613f4757613f46613e2b565b5b8135613f57848260208601613ef0565b91505092915050565b600080fd5b600080fd5b60008083601f840112613f8057613f7f613e2b565b5b8235905067ffffffffffffffff811115613f9d57613f9c613f60565b5b602083019150836001820283011115613fb957613fb8613f65565b5b9250929050565b60008060008060008060008060c0898b031215613fe057613fdf613730565b5b6000613fee8b828c01613783565b985050602089013567ffffffffffffffff81111561400f5761400e613735565b5b61401b8b828c01613f32565b975050604061402c8b828c016137ed565b965050606061403d8b828c016137ed565b955050608089013567ffffffffffffffff81111561405e5761405d613735565b5b61406a8b828c01613f6a565b945094505060a089013567ffffffffffffffff81111561408d5761408c613735565b5b6140998b828c01613f6a565b92509250509295985092959890939650565b6000806000606084860312156140c4576140c3613730565b5b60006140d286828701613783565b93505060206140e3868287016137ed565b92505060406140f486828701613783565b9150509250925092565b600081519050919050565b600082825260208201905092915050565b6000819050602082019050919050565b7f4e487b7100000000000000000000000000000000000000000000000000000000600052602160045260246000fd5b6005811061416a5761416961412a565b5b50565b600081905061417b82614159565b919050565b600061418b8261416d565b9050919050565b61419b81614180565b82525050565b600060608301600083015184820360008601526141be8282613bec565b91505060208301516141d36020860182613973565b5060408301516141e66040860182614192565b508091505092915050565b60006141fd83836141a1565b905092915050565b6000602082019050919050565b600061421d826140fe565b6142278185614109565b9350836020820285016142398561411a565b8060005b85811015614275578484038952815161425685826141f1565b945061426183614205565b925060208a0199505060018101905061423d565b50829750879550505050505092915050565b600060208201905081810360008301526142a18184614212565b905092915050565b7f496e76616c696420616464726573730000000000000000000000000000000000600082015250565b60006142df600f83613d4e565b91506142ea826142a9565b602082019050919050565b6000602082019050818103600083015261430e816142d2565b9050919050565b7f20496e76616c6964206164647265737300000000000000000000000000000000600082015250565b600061434b601083613d4e565b915061435682614315565b602082019050919050565b6000602082019050818103600083015261437a8161433e565b9050919050565b7f796f752063616e6e6f742073656e6420746f20796f757273656c660000000000600082015250565b60006143b7601b83613d4e565b91506143c282614381565b602082019050919050565b600060208201905081810360008301526143e6816143aa565b9050919050565b7f6e6f742061206d656d6265720000000000000000000000000000000000000000600082015250565b6000614423600c83613d4e565b915061442e826143ed565b602082019050919050565b6000602082019050818103600083015261445281614416565b9050919050565b7f4e487b7100000000000000000000000000000000000000000000000000000000600052603260045260246000fd5b7f4e487b7100000000000000000000000000000000000000000000000000000000600052602260045260246000fd5b600060028204905060018216806144cf57607f821691505b602082108114156144e3576144e2614488565b5b50919050565b600081905092915050565b50565b60006145046000836144e9565b915061450f826144f4565b600082019050919050565b6000614525826144f7565b9150819050919050565b7f4e487b7100000000000000000000000000000000000000000000000000000000600052601160045260246000fd5b6000614569826136f2565b9150614574836136f2565b9250827fffffffffffffffffffffffffffffffffffffffffffffffffffffffffffffffff038211156145a9576145a861452f565b5b828201905092915050565b7f6e6f2070726f6475637420666f756e6400000000000000000000000000000000600082015250565b60006145ea601083613d4e565b91506145f5826145b4565b602082019050919050565b60006020820190508181036000830152614619816145dd565b9050919050565b7f70726f64756374207175616e74697479206e6f74207370656369666965640000600082015250565b6000614656601e83613d4e565b915061466182614620565b602082019050919050565b6000602082019050818103600083015261468581614649565b9050919050565b7f20796f7520646f6e74206f776e20746869732070726f64756374000000000000600082015250565b60006146c2601a83613d4e565b91506146cd8261468c565b602082019050919050565b600060208201905081810360008301526146f1816146b5565b9050919050565b6000614703826136f2565b915061470e836136f2565b9250828210156147215761472061452f565b5b828203905092915050565b6000614737826136f2565b91507fffffffffffffffffffffffffffffffffffffffffffffffffffffffffffffffff82141561476a5761476961452f565b5b600182019050919050565b7f4e487b7100000000000000000000000000000000000000000000000000000000600052603160045260246000fdfea2646970667358221220fa2fd4c6592eab89035c2916a34e1863348cf02fe170670d7f0d46bcb8f59a5264736f6c634300080b0033",
  "immutableReferences": {},
  "source": "//SPDX-License-Identifier: MIT\r\npragma solidity ^0.8.0;\r\n\r\nimport './ERC721.sol';\r\n\r\ncontract AgriBlock is ERC721{\r\n    \r\n    address private contract_owner;\r\n    address private buyer;\r\n    constructor(){\r\n        contract_owner = msg.sender;\r\n    }\r\n    \r\n    \r\n}",
  "sourcePath": "C:\\Users\\olive\\Documents\\MyProjects\\decentralized_agriculture_marketplace\\src\\contracts\\AgriBlock.sol",
  "compiler": {
    "name": "solc",
    "version": "0.8.11+commit.d7f03943.Emscripten.clang"
  },
  "schemaVersion": "3.4.5",
  "updatedAt": "2022-03-17T04:14:19.995Z",
  "networkType": "ethereum",
  "devdoc": {
    "kind": "dev",
    "methods": {},
    "version": 1
  },
  "userdoc": {
    "kind": "user",
    "methods": {},
    "version": 1
  }
}