{
  "contractName": "AgriBlock",
  "abi": [
    {
      "inputs": [],
      "stateMutability": "nonpayable",
      "type": "constructor"
    },
    {
      "inputs": [
        {
          "internalType": "address",
          "name": "_owner",
          "type": "address"
        }
      ],
      "name": "balanceOf",
      "outputs": [
        {
          "components": [
            {
              "internalType": "string",
              "name": "product_name",
              "type": "string"
            },
            {
              "internalType": "uint256",
              "name": "product_quantity",
              "type": "uint256"
            },
            {
              "internalType": "uint256",
              "name": "price",
              "type": "uint256"
            },
            {
              "internalType": "string",
              "name": "_dateOfPlant",
              "type": "string"
            },
            {
              "internalType": "string",
              "name": "_harvestDate",
              "type": "string"
            },
            {
              "internalType": "address",
              "name": "_owner",
              "type": "address"
            },
            {
              "internalType": "uint256",
              "name": "count",
              "type": "uint256"
            }
          ],
          "internalType": "struct ERC721.Products[]",
          "name": "",
          "type": "tuple[]"
        }
      ],
      "stateMutability": "view",
      "type": "function",
      "constant": true
    },
    {
      "inputs": [
        {
          "internalType": "address",
          "name": "",
          "type": "address"
        }
      ],
      "name": "isMember",
      "outputs": [
        {
          "internalType": "bool",
          "name": "",
          "type": "bool"
        }
      ],
      "stateMutability": "view",
      "type": "function",
      "constant": true
    },
    {
      "inputs": [
        {
          "internalType": "address",
          "name": "_owner",
          "type": "address"
        },
        {
          "internalType": "string",
          "name": "product_name",
          "type": "string"
        },
        {
          "internalType": "uint256",
          "name": "product_quantity",
          "type": "uint256"
        },
        {
          "internalType": "uint256",
          "name": "price",
          "type": "uint256"
        },
        {
          "internalType": "string",
          "name": "_dateOfPlant",
          "type": "string"
        },
        {
          "internalType": "string",
          "name": "_harvestDate",
          "type": "string"
        }
      ],
      "name": "mint",
      "outputs": [],
      "stateMutability": "nonpayable",
      "type": "function"
    },
    {
      "inputs": [
        {
          "internalType": "uint256",
          "name": "",
          "type": "uint256"
        }
      ],
      "name": "product",
      "outputs": [
        {
          "internalType": "string",
          "name": "product_name",
          "type": "string"
        },
        {
          "internalType": "uint256",
          "name": "product_quantity",
          "type": "uint256"
        },
        {
          "internalType": "uint256",
          "name": "price",
          "type": "uint256"
        },
        {
          "internalType": "string",
          "name": "_dateOfPlant",
          "type": "string"
        },
        {
          "internalType": "string",
          "name": "_harvestDate",
          "type": "string"
        },
        {
          "internalType": "address",
          "name": "_owner",
          "type": "address"
        },
        {
          "internalType": "uint256",
          "name": "count",
          "type": "uint256"
        }
      ],
      "stateMutability": "view",
      "type": "function",
      "constant": true
    },
    {
      "inputs": [
        {
          "internalType": "uint256",
          "name": "_index",
          "type": "uint256"
        }
      ],
      "name": "tokenByIndex",
      "outputs": [
        {
          "components": [
            {
              "internalType": "string",
              "name": "product_name",
              "type": "string"
            },
            {
              "internalType": "uint256",
              "name": "product_quantity",
              "type": "uint256"
            },
            {
              "internalType": "uint256",
              "name": "price",
              "type": "uint256"
            },
            {
              "internalType": "string",
              "name": "_dateOfPlant",
              "type": "string"
            },
            {
              "internalType": "string",
              "name": "_harvestDate",
              "type": "string"
            },
            {
              "internalType": "address",
              "name": "_owner",
              "type": "address"
            },
            {
              "internalType": "uint256",
              "name": "count",
              "type": "uint256"
            }
          ],
          "internalType": "struct ERC721.Products",
          "name": "",
          "type": "tuple"
        }
      ],
      "stateMutability": "view",
      "type": "function",
      "constant": true
    },
    {
      "inputs": [
        {
          "internalType": "address",
          "name": "_owner",
          "type": "address"
        },
        {
          "internalType": "uint256",
          "name": "_index",
          "type": "uint256"
        }
      ],
      "name": "tokenOfOwnerByIndex",
      "outputs": [
        {
          "components": [
            {
              "internalType": "string",
              "name": "product_name",
              "type": "string"
            },
            {
              "internalType": "uint256",
              "name": "product_quantity",
              "type": "uint256"
            },
            {
              "internalType": "uint256",
              "name": "price",
              "type": "uint256"
            },
            {
              "internalType": "string",
              "name": "_dateOfPlant",
              "type": "string"
            },
            {
              "internalType": "string",
              "name": "_harvestDate",
              "type": "string"
            },
            {
              "internalType": "address",
              "name": "_owner",
              "type": "address"
            },
            {
              "internalType": "uint256",
              "name": "count",
              "type": "uint256"
            }
          ],
          "internalType": "struct ERC721.Products",
          "name": "",
          "type": "tuple"
        }
      ],
      "stateMutability": "view",
      "type": "function",
      "constant": true
    },
    {
      "inputs": [],
      "name": "totalCommodity",
      "outputs": [
        {
          "components": [
            {
              "internalType": "string",
              "name": "product_name",
              "type": "string"
            },
            {
              "internalType": "uint256",
              "name": "product_quantity",
              "type": "uint256"
            },
            {
              "internalType": "uint256",
              "name": "price",
              "type": "uint256"
            },
            {
              "internalType": "string",
              "name": "_dateOfPlant",
              "type": "string"
            },
            {
              "internalType": "string",
              "name": "_harvestDate",
              "type": "string"
            },
            {
              "internalType": "address",
              "name": "_owner",
              "type": "address"
            },
            {
              "internalType": "uint256",
              "name": "count",
              "type": "uint256"
            }
          ],
          "internalType": "struct ERC721.Products[]",
          "name": "",
          "type": "tuple[]"
        }
      ],
      "stateMutability": "view",
      "type": "function",
      "constant": true
    },
    {
      "inputs": [],
      "name": "totalSupply",
      "outputs": [
        {
          "internalType": "uint256",
          "name": "",
          "type": "uint256"
        }
      ],
      "stateMutability": "view",
      "type": "function",
      "constant": true
    },
    {
      "inputs": [
        {
          "internalType": "address",
          "name": "_from",
          "type": "address"
        },
        {
          "internalType": "address payable",
          "name": "_to",
          "type": "address"
        },
        {
          "internalType": "uint256",
          "name": "_index",
          "type": "uint256"
        }
      ],
      "name": "transferFrom",
      "outputs": [
        {
          "internalType": "bool",
          "name": "",
          "type": "bool"
        }
      ],
      "stateMutability": "payable",
      "type": "function",
      "payable": true
    },
    {
      "inputs": [
        {
          "internalType": "address",
          "name": "",
          "type": "address"
        }
      ],
      "name": "userSuccessFullTrades",
      "outputs": [
        {
          "internalType": "uint256",
          "name": "",
          "type": "uint256"
        }
      ],
      "stateMutability": "view",
      "type": "function",
      "constant": true
    }
  ],
  "bytecode": "0x608060405234801561001057600080fd5b5033600460006101000a81548173ffffffffffffffffffffffffffffffffffffffff021916908373ffffffffffffffffffffffffffffffffffffffff160217905550612f26806100616000396000f3fe6080604052600436106100915760003560e01c806370a082311161005957806370a08231146101a8578063780bd3f1146101e55780639129b4ad14610228578063a00fea1f14610251578063a230c5241461027c57610091565b806318160ddd1461009657806323b872dd146100c15780632f745c59146100f15780634f6ccce71461012e578063562aa3a51461016b575b600080fd5b3480156100a257600080fd5b506100ab6102b9565b6040516100b891906121b3565b60405180910390f35b6100db60048036038101906100d691906122aa565b6102c5565b6040516100e89190612318565b60405180910390f35b3480156100fd57600080fd5b5061011860048036038101906101139190612333565b6104c2565b60405161012591906124d4565b60405180910390f35b34801561013a57600080fd5b50610155600480360381019061015091906124f6565b610766565b60405161016291906124d4565b60405180910390f35b34801561017757600080fd5b50610192600480360381019061018d9190612523565b6109cc565b60405161019f91906121b3565b60405180910390f35b3480156101b457600080fd5b506101cf60048036038101906101ca9190612523565b6109e4565b6040516101dc91906126bc565b60405180910390f35b3480156101f157600080fd5b5061020c600480360381019061020791906124f6565b610cec565b60405161021f9796959493929190612737565b60405180910390f35b34801561023457600080fd5b5061024f600480360381019061024a9190612950565b610ef6565b005b34801561025d57600080fd5b506102666110db565b60405161027391906126bc565b60405180910390f35b34801561028857600080fd5b506102a3600480360381019061029e9190612523565b611364565b6040516102b09190612318565b60405180910390f35b60008080549050905090565b60008073ffffffffffffffffffffffffffffffffffffffff168473ffffffffffffffffffffffffffffffffffffffff161415610336576040517f08c379a000000000000000000000000000000000000000000000000000000000815260040161032d90612a87565b60405180910390fd5b600073ffffffffffffffffffffffffffffffffffffffff168373ffffffffffffffffffffffffffffffffffffffff1614156103a6576040517f08c379a000000000000000000000000000000000000000000000000000000000815260040161039d90612af3565b60405180910390fd5b8373ffffffffffffffffffffffffffffffffffffffff168373ffffffffffffffffffffffffffffffffffffffff161415610415576040517f08c379a000000000000000000000000000000000000000000000000000000000815260040161040c90612b5f565b60405180910390fd5b60011515600260008673ffffffffffffffffffffffffffffffffffffffff1673ffffffffffffffffffffffffffffffffffffffff16815260200190815260200160002060009054906101000a900460ff161515146104a8576040517f08c379a000000000000000000000000000000000000000000000000000000000815260040161049f90612bcb565b60405180910390fd5b60006104b5858585611384565b9050809150509392505050565b6104ca611fd7565b600160008473ffffffffffffffffffffffffffffffffffffffff1673ffffffffffffffffffffffffffffffffffffffff168152602001908152602001600020828154811061051b5761051a612beb565b5b90600052602060002090600702016040518060e001604052908160008201805461054490612c49565b80601f016020809104026020016040519081016040528092919081815260200182805461057090612c49565b80156105bd5780601f10610592576101008083540402835291602001916105bd565b820191906000526020600020905b8154815290600101906020018083116105a057829003601f168201915b5050505050815260200160018201548152602001600282015481526020016003820180546105ea90612c49565b80601f016020809104026020016040519081016040528092919081815260200182805461061690612c49565b80156106635780601f1061063857610100808354040283529160200191610663565b820191906000526020600020905b81548152906001019060200180831161064657829003601f168201915b5050505050815260200160048201805461067c90612c49565b80601f01602080910402602001604051908101604052809291908181526020018280546106a890612c49565b80156106f55780601f106106ca576101008083540402835291602001916106f5565b820191906000526020600020905b8154815290600101906020018083116106d857829003601f168201915b505050505081526020016005820160009054906101000a900473ffffffffffffffffffffffffffffffffffffffff1673ffffffffffffffffffffffffffffffffffffffff1673ffffffffffffffffffffffffffffffffffffffff168152602001600682015481525050905092915050565b61076e611fd7565b6000828154811061078257610781612beb565b5b90600052602060002090600702016040518060e00160405290816000820180546107ab90612c49565b80601f01602080910402602001604051908101604052809291908181526020018280546107d790612c49565b80156108245780601f106107f957610100808354040283529160200191610824565b820191906000526020600020905b81548152906001019060200180831161080757829003601f168201915b50505050508152602001600182015481526020016002820154815260200160038201805461085190612c49565b80601f016020809104026020016040519081016040528092919081815260200182805461087d90612c49565b80156108ca5780601f1061089f576101008083540402835291602001916108ca565b820191906000526020600020905b8154815290600101906020018083116108ad57829003601f168201915b505050505081526020016004820180546108e390612c49565b80601f016020809104026020016040519081016040528092919081815260200182805461090f90612c49565b801561095c5780601f106109315761010080835404028352916020019161095c565b820191906000526020600020905b81548152906001019060200180831161093f57829003601f168201915b505050505081526020016005820160009054906101000a900473ffffffffffffffffffffffffffffffffffffffff1673ffffffffffffffffffffffffffffffffffffffff1673ffffffffffffffffffffffffffffffffffffffff1681526020016006820154815250509050919050565b60036020528060005260406000206000915090505481565b6060600073ffffffffffffffffffffffffffffffffffffffff168273ffffffffffffffffffffffffffffffffffffffff161415610a2057600080fd5b6000600160008473ffffffffffffffffffffffffffffffffffffffff1673ffffffffffffffffffffffffffffffffffffffff168152602001908152602001600020905080805480602002602001604051908101604052809291908181526020016000905b82821015610ce057838290600052602060002090600702016040518060e0016040529081600082018054610ab790612c49565b80601f0160208091040260200160405190810160405280929190818152602001828054610ae390612c49565b8015610b305780601f10610b0557610100808354040283529160200191610b30565b820191906000526020600020905b815481529060010190602001808311610b1357829003601f168201915b505050505081526020016001820154815260200160028201548152602001600382018054610b5d90612c49565b80601f0160208091040260200160405190810160405280929190818152602001828054610b8990612c49565b8015610bd65780601f10610bab57610100808354040283529160200191610bd6565b820191906000526020600020905b815481529060010190602001808311610bb957829003601f168201915b50505050508152602001600482018054610bef90612c49565b80601f0160208091040260200160405190810160405280929190818152602001828054610c1b90612c49565b8015610c685780601f10610c3d57610100808354040283529160200191610c68565b820191906000526020600020905b815481529060010190602001808311610c4b57829003601f168201915b505050505081526020016005820160009054906101000a900473ffffffffffffffffffffffffffffffffffffffff1673ffffffffffffffffffffffffffffffffffffffff1673ffffffffffffffffffffffffffffffffffffffff16815260200160068201548152505081526020019060010190610a84565b50505050915050919050565b60008181548110610cfc57600080fd5b9060005260206000209060070201600091509050806000018054610d1f90612c49565b80601f0160208091040260200160405190810160405280929190818152602001828054610d4b90612c49565b8015610d985780601f10610d6d57610100808354040283529160200191610d98565b820191906000526020600020905b815481529060010190602001808311610d7b57829003601f168201915b505050505090806001015490806002015490806003018054610db990612c49565b80601f0160208091040260200160405190810160405280929190818152602001828054610de590612c49565b8015610e325780601f10610e0757610100808354040283529160200191610e32565b820191906000526020600020905b815481529060010190602001808311610e1557829003601f168201915b505050505090806004018054610e4790612c49565b80601f0160208091040260200160405190810160405280929190818152602001828054610e7390612c49565b8015610ec05780601f10610e9557610100808354040283529160200191610ec0565b820191906000526020600020905b815481529060010190602001808311610ea357829003601f168201915b5050505050908060050160009054906101000a900473ffffffffffffffffffffffffffffffffffffffff16908060060154905087565b60006040518060e0016040528089815260200188815260200187815260200186868080601f016020809104026020016040519081016040528093929190818152602001838380828437600081840152601f19601f82011690508083019250505050505050815260200184848080601f016020809104026020016040519081016040528093929190818152602001838380828437600081840152601f19601f8201169050808301925050505050505081526020018a73ffffffffffffffffffffffffffffffffffffffff1681526020016001600080549050610fd79190612caa565b81525090506000819080600181540180825580915050600190039060005260206000209060070201600090919091909150600082015181600001908051906020019061102492919061202a565b506020820151816001015560408201518160020155606082015181600301908051906020019061105592919061202a565b50608082015181600401908051906020019061107292919061202a565b5060a08201518160050160006101000a81548173ffffffffffffffffffffffffffffffffffffffff021916908373ffffffffffffffffffffffffffffffffffffffff16021790555060c0820151816006015550506110d08982611a03565b505050505050505050565b60606000805480602002602001604051908101604052809291908181526020016000905b8282101561135b57838290600052602060002090600702016040518060e001604052908160008201805461113290612c49565b80601f016020809104026020016040519081016040528092919081815260200182805461115e90612c49565b80156111ab5780601f10611180576101008083540402835291602001916111ab565b820191906000526020600020905b81548152906001019060200180831161118e57829003601f168201915b5050505050815260200160018201548152602001600282015481526020016003820180546111d890612c49565b80601f016020809104026020016040519081016040528092919081815260200182805461120490612c49565b80156112515780601f1061122657610100808354040283529160200191611251565b820191906000526020600020905b81548152906001019060200180831161123457829003601f168201915b5050505050815260200160048201805461126a90612c49565b80601f016020809104026020016040519081016040528092919081815260200182805461129690612c49565b80156112e35780601f106112b8576101008083540402835291602001916112e3565b820191906000526020600020905b8154815290600101906020018083116112c657829003601f168201915b505050505081526020016005820160009054906101000a900473ffffffffffffffffffffffffffffffffffffffff1673ffffffffffffffffffffffffffffffffffffffff1673ffffffffffffffffffffffffffffffffffffffff168152602001600682015481525050815260200190600101906110ff565b50505050905090565b60026020528060005260406000206000915054906101000a900460ff1681565b6000806000838154811061139b5761139a612beb565b5b90600052602060002090600702016040518060e00160405290816000820180546113c490612c49565b80601f01602080910402602001604051908101604052809291908181526020018280546113f090612c49565b801561143d5780601f106114125761010080835404028352916020019161143d565b820191906000526020600020905b81548152906001019060200180831161142057829003601f168201915b50505050508152602001600182015481526020016002820154815260200160038201805461146a90612c49565b80601f016020809104026020016040519081016040528092919081815260200182805461149690612c49565b80156114e35780601f106114b8576101008083540402835291602001916114e3565b820191906000526020600020905b8154815290600101906020018083116114c657829003601f168201915b505050505081526020016004820180546114fc90612c49565b80601f016020809104026020016040519081016040528092919081815260200182805461152890612c49565b80156115755780601f1061154a57610100808354040283529160200191611575565b820191906000526020600020905b81548152906001019060200180831161155857829003601f168201915b505050505081526020016005820160009054906101000a900473ffffffffffffffffffffffffffffffffffffffff1673ffffffffffffffffffffffffffffffffffffffff1673ffffffffffffffffffffffffffffffffffffffff1681526020016006820154815250509050600081604001511415611628576040517f08c379a000000000000000000000000000000000000000000000000000000000815260040161161f90612d4c565b60405180910390fd5b600081602001511415611670576040517f08c379a000000000000000000000000000000000000000000000000000000000815260040161166790612db8565b60405180910390fd5b8473ffffffffffffffffffffffffffffffffffffffff168160a0015173ffffffffffffffffffffffffffffffffffffffff16146116e2576040517f08c379a00000000000000000000000000000000000000000000000000000000081526004016116d990612e24565b60405180910390fd5b60008160c0015190506116f58682611b86565b848260a0019073ffffffffffffffffffffffffffffffffffffffff16908173ffffffffffffffffffffffffffffffffffffffff168152505061173684611dcf565b6000829080600181540180825580915050600190039060005260206000209060070201600090919091909150600082015181600001908051906020019061177e92919061202a565b50602082015181600101556040820151816002015560608201518160030190805190602001906117af92919061202a565b5060808201518160040190805190602001906117cc92919061202a565b5060a08201518160050160006101000a81548173ffffffffffffffffffffffffffffffffffffffff021916908373ffffffffffffffffffffffffffffffffffffffff16021790555060c0820151816006015550506001600260008773ffffffffffffffffffffffffffffffffffffffff1673ffffffffffffffffffffffffffffffffffffffff16815260200190815260200160002060006101000a81548160ff0219169083151502179055506001600360008873ffffffffffffffffffffffffffffffffffffffff1673ffffffffffffffffffffffffffffffffffffffff16815260200190815260200160002060008282546118c89190612caa565b92505081905550600160008673ffffffffffffffffffffffffffffffffffffffff1673ffffffffffffffffffffffffffffffffffffffff168152602001908152602001600020829080600181540180825580915050600190039060005260206000209060070201600090919091909150600082015181600001908051906020019061195492919061202a565b506020820151816001015560408201518160020155606082015181600301908051906020019061198592919061202a565b5060808201518160040190805190602001906119a292919061202a565b5060a08201518160050160006101000a81548173ffffffffffffffffffffffffffffffffffffffff021916908373ffffffffffffffffffffffffffffffffffffffff16021790555060c0820151816006015550506001925050509392505050565b600160008373ffffffffffffffffffffffffffffffffffffffff1673ffffffffffffffffffffffffffffffffffffffff1681526020019081526020016000208190806001815401808255809150506001900390600052602060002090600702016000909190919091506000820151816000019080519060200190611a8892919061202a565b5060208201518160010155604082015181600201556060820151816003019080519060200190611ab992919061202a565b506080820151816004019080519060200190611ad692919061202a565b5060a08201518160050160006101000a81548173ffffffffffffffffffffffffffffffffffffffff021916908373ffffffffffffffffffffffffffffffffffffffff16021790555060c0820151816006015550506001600260008473ffffffffffffffffffffffffffffffffffffffff1673ffffffffffffffffffffffffffffffffffffffff16815260200190815260200160002060006101000a81548160ff0219169083151502179055505050565b6000600160008473ffffffffffffffffffffffffffffffffffffffff1673ffffffffffffffffffffffffffffffffffffffff168152602001908152602001600020905060008290505b60018280549050611be09190612e44565b811015611d305781600182611bf59190612caa565b81548110611c0657611c05612beb565b5b9060005260206000209060070201828281548110611c2757611c26612beb565b5b90600052602060002090600702016000820181600001908054611c4990612c49565b611c549291906120b0565b5060018201548160010155600282015481600201556003820181600301908054611c7d90612c49565b611c889291906120b0565b506004820181600401908054611c9d90612c49565b611ca89291906120b0565b506005820160009054906101000a900473ffffffffffffffffffffffffffffffffffffffff168160050160006101000a81548173ffffffffffffffffffffffffffffffffffffffff021916908373ffffffffffffffffffffffffffffffffffffffff160217905550600682015481600601559050508080611d2890612e78565b915050611bcf565b5080805480611d4257611d41612ec1565b5b600190038181906000526020600020906007020160008082016000611d67919061213d565b60018201600090556002820160009055600382016000611d87919061213d565b600482016000611d97919061213d565b6005820160006101000a81549073ffffffffffffffffffffffffffffffffffffffff0219169055600682016000905550509055505050565b60008190505b6001600080549050611de79190612e44565b811015611f39576000600182611dfd9190612caa565b81548110611e0e57611e0d612beb565b5b906000526020600020906007020160008281548110611e3057611e2f612beb565b5b90600052602060002090600702016000820181600001908054611e5290612c49565b611e5d9291906120b0565b5060018201548160010155600282015481600201556003820181600301908054611e8690612c49565b611e919291906120b0565b506004820181600401908054611ea690612c49565b611eb19291906120b0565b506005820160009054906101000a900473ffffffffffffffffffffffffffffffffffffffff168160050160006101000a81548173ffffffffffffffffffffffffffffffffffffffff021916908373ffffffffffffffffffffffffffffffffffffffff160217905550600682015481600601559050508080611f3190612e78565b915050611dd5565b506000805480611f4c57611f4b612ec1565b5b600190038181906000526020600020906007020160008082016000611f71919061213d565b60018201600090556002820160009055600382016000611f91919061213d565b600482016000611fa1919061213d565b6005820160006101000a81549073ffffffffffffffffffffffffffffffffffffffff021916905560068201600090555050905550565b6040518060e001604052806060815260200160008152602001600081526020016060815260200160608152602001600073ffffffffffffffffffffffffffffffffffffffff168152602001600081525090565b82805461203690612c49565b90600052602060002090601f016020900481019282612058576000855561209f565b82601f1061207157805160ff191683800117855561209f565b8280016001018555821561209f579182015b8281111561209e578251825591602001919060010190612083565b5b5090506120ac919061217d565b5090565b8280546120bc90612c49565b90600052602060002090601f0160209004810192826120de576000855561212c565b82601f106120ef578054855561212c565b8280016001018555821561212c57600052602060002091601f016020900482015b8281111561212b578254825591600101919060010190612110565b5b509050612139919061217d565b5090565b50805461214990612c49565b6000825580601f1061215b575061217a565b601f016020900490600052602060002090810190612179919061217d565b5b50565b5b8082111561219657600081600090555060010161217e565b5090565b6000819050919050565b6121ad8161219a565b82525050565b60006020820190506121c860008301846121a4565b92915050565b6000604051905090565b600080fd5b600080fd5b600073ffffffffffffffffffffffffffffffffffffffff82169050919050565b600061220d826121e2565b9050919050565b61221d81612202565b811461222857600080fd5b50565b60008135905061223a81612214565b92915050565b600061224b826121e2565b9050919050565b61225b81612240565b811461226657600080fd5b50565b60008135905061227881612252565b92915050565b6122878161219a565b811461229257600080fd5b50565b6000813590506122a48161227e565b92915050565b6000806000606084860312156122c3576122c26121d8565b5b60006122d18682870161222b565b93505060206122e286828701612269565b92505060406122f386828701612295565b9150509250925092565b60008115159050919050565b612312816122fd565b82525050565b600060208201905061232d6000830184612309565b92915050565b6000806040838503121561234a576123496121d8565b5b60006123588582860161222b565b925050602061236985828601612295565b9150509250929050565b600081519050919050565b600082825260208201905092915050565b60005b838110156123ad578082015181840152602081019050612392565b838111156123bc576000848401525b50505050565b6000601f19601f8301169050919050565b60006123de82612373565b6123e8818561237e565b93506123f881856020860161238f565b612401816123c2565b840191505092915050565b6124158161219a565b82525050565b61242481612202565b82525050565b600060e083016000830151848203600086015261244782826123d3565b915050602083015161245c602086018261240c565b50604083015161246f604086018261240c565b506060830151848203606086015261248782826123d3565b915050608083015184820360808601526124a182826123d3565b91505060a08301516124b660a086018261241b565b5060c08301516124c960c086018261240c565b508091505092915050565b600060208201905081810360008301526124ee818461242a565b905092915050565b60006020828403121561250c5761250b6121d8565b5b600061251a84828501612295565b91505092915050565b600060208284031215612539576125386121d8565b5b60006125478482850161222b565b91505092915050565b600081519050919050565b600082825260208201905092915050565b6000819050602082019050919050565b600060e083016000830151848203600086015261259982826123d3565b91505060208301516125ae602086018261240c565b5060408301516125c1604086018261240c565b50606083015184820360608601526125d982826123d3565b915050608083015184820360808601526125f382826123d3565b91505060a083015161260860a086018261241b565b5060c083015161261b60c086018261240c565b508091505092915050565b6000612632838361257c565b905092915050565b6000602082019050919050565b600061265282612550565b61265c818561255b565b93508360208202850161266e8561256c565b8060005b858110156126aa578484038952815161268b8582612626565b94506126968361263a565b925060208a01995050600181019050612672565b50829750879550505050505092915050565b600060208201905081810360008301526126d68184612647565b905092915050565b600082825260208201905092915050565b60006126fa82612373565b61270481856126de565b935061271481856020860161238f565b61271d816123c2565b840191505092915050565b61273181612202565b82525050565b600060e0820190508181036000830152612751818a6126ef565b905061276060208301896121a4565b61276d60408301886121a4565b818103606083015261277f81876126ef565b9050818103608083015261279381866126ef565b90506127a260a0830185612728565b6127af60c08301846121a4565b98975050505050505050565b600080fd5b600080fd5b7f4e487b7100000000000000000000000000000000000000000000000000000000600052604160045260246000fd5b6127fd826123c2565b810181811067ffffffffffffffff8211171561281c5761281b6127c5565b5b80604052505050565b600061282f6121ce565b905061283b82826127f4565b919050565b600067ffffffffffffffff82111561285b5761285a6127c5565b5b612864826123c2565b9050602081019050919050565b82818337600083830152505050565b600061289361288e84612840565b612825565b9050828152602081018484840111156128af576128ae6127c0565b5b6128ba848285612871565b509392505050565b600082601f8301126128d7576128d66127bb565b5b81356128e7848260208601612880565b91505092915050565b600080fd5b600080fd5b60008083601f8401126129105761290f6127bb565b5b8235905067ffffffffffffffff81111561292d5761292c6128f0565b5b602083019150836001820283011115612949576129486128f5565b5b9250929050565b60008060008060008060008060c0898b0312156129705761296f6121d8565b5b600061297e8b828c0161222b565b985050602089013567ffffffffffffffff81111561299f5761299e6121dd565b5b6129ab8b828c016128c2565b97505060406129bc8b828c01612295565b96505060606129cd8b828c01612295565b955050608089013567ffffffffffffffff8111156129ee576129ed6121dd565b5b6129fa8b828c016128fa565b945094505060a089013567ffffffffffffffff811115612a1d57612a1c6121dd565b5b612a298b828c016128fa565b92509250509295985092959890939650565b7f496e76616c696420616464726573730000000000000000000000000000000000600082015250565b6000612a71600f836126de565b9150612a7c82612a3b565b602082019050919050565b60006020820190508181036000830152612aa081612a64565b9050919050565b7f20496e76616c6964206164647265737300000000000000000000000000000000600082015250565b6000612add6010836126de565b9150612ae882612aa7565b602082019050919050565b60006020820190508181036000830152612b0c81612ad0565b9050919050565b7f796f752063616e6e6f742073656e6420746f20796f757273656c660000000000600082015250565b6000612b49601b836126de565b9150612b5482612b13565b602082019050919050565b60006020820190508181036000830152612b7881612b3c565b9050919050565b7f6e6f742061206d656d6265720000000000000000000000000000000000000000600082015250565b6000612bb5600c836126de565b9150612bc082612b7f565b602082019050919050565b60006020820190508181036000830152612be481612ba8565b9050919050565b7f4e487b7100000000000000000000000000000000000000000000000000000000600052603260045260246000fd5b7f4e487b7100000000000000000000000000000000000000000000000000000000600052602260045260246000fd5b60006002820490506001821680612c6157607f821691505b60208210811415612c7557612c74612c1a565b5b50919050565b7f4e487b7100000000000000000000000000000000000000000000000000000000600052601160045260246000fd5b6000612cb58261219a565b9150612cc08361219a565b9250827fffffffffffffffffffffffffffffffffffffffffffffffffffffffffffffffff03821115612cf557612cf4612c7b565b5b828201905092915050565b7f6e6f2070726f6475637420666f756e6400000000000000000000000000000000600082015250565b6000612d366010836126de565b9150612d4182612d00565b602082019050919050565b60006020820190508181036000830152612d6581612d29565b9050919050565b7f70726f64756374207175616e74697479206e6f74207370656369666965640000600082015250565b6000612da2601e836126de565b9150612dad82612d6c565b602082019050919050565b60006020820190508181036000830152612dd181612d95565b9050919050565b7f20796f7520646f6e74206f776e20746869732070726f64756374000000000000600082015250565b6000612e0e601a836126de565b9150612e1982612dd8565b602082019050919050565b60006020820190508181036000830152612e3d81612e01565b9050919050565b6000612e4f8261219a565b9150612e5a8361219a565b925082821015612e6d57612e6c612c7b565b5b828203905092915050565b6000612e838261219a565b91507fffffffffffffffffffffffffffffffffffffffffffffffffffffffffffffffff821415612eb657612eb5612c7b565b5b600182019050919050565b7f4e487b7100000000000000000000000000000000000000000000000000000000600052603160045260246000fdfea264697066735822122020a0580d360621d9f029c6aec10b9fef29e4faaf90ecb5e1a74022187501ab3364736f6c634300080b0033",
  "immutableReferences": {},
  "source": "//SPDX-License-Identifier: MIT\r\npragma solidity ^0.8.0;\r\n\r\nimport './ERC721.sol';\r\n\r\ncontract AgriBlock is ERC721{\r\n    \r\n    address private contract_owner;\r\n    address private buyer;\r\n    constructor(){\r\n        contract_owner = msg.sender;\r\n    }\r\n    \r\n    \r\n}",
  "sourcePath": "C:\\Users\\olive\\Documents\\MyProjects\\decentralized_agriculture_marketplace\\src\\contracts\\AgriBlock.sol",
  "compiler": {
    "name": "solc",
    "version": "0.8.11+commit.d7f03943.Emscripten.clang"
  },
  "schemaVersion": "3.4.5",
  "updatedAt": "2022-08-13T07:45:54.428Z",
  "networkType": "ethereum",
  "devdoc": {
    "kind": "dev",
    "methods": {},
    "version": 1
  },
  "userdoc": {
    "kind": "user",
    "methods": {},
    "version": 1
  }
}