{
  "contractName": "ERC721Enumerable",
  "abi": [
    {
      "inputs": [
        {
          "internalType": "address",
          "name": "_owner",
          "type": "address"
        }
      ],
      "name": "balanceOf",
      "outputs": [
        {
          "components": [
            {
              "internalType": "string",
              "name": "product_name",
              "type": "string"
            },
            {
              "internalType": "uint256",
              "name": "product_quantity",
              "type": "uint256"
            },
            {
              "internalType": "uint256",
              "name": "price",
              "type": "uint256"
            },
            {
              "internalType": "string",
              "name": "_dateOfPlant",
              "type": "string"
            },
            {
              "internalType": "string",
              "name": "_harvestDate",
              "type": "string"
            },
            {
              "internalType": "address",
              "name": "_owner",
              "type": "address"
            },
            {
              "internalType": "uint256",
              "name": "count",
              "type": "uint256"
            }
          ],
          "internalType": "struct ERC721.Products[]",
          "name": "",
          "type": "tuple[]"
        }
      ],
      "stateMutability": "view",
      "type": "function"
    },
    {
      "inputs": [
        {
          "internalType": "address",
          "name": "",
          "type": "address"
        }
      ],
      "name": "isMember",
      "outputs": [
        {
          "internalType": "bool",
          "name": "",
          "type": "bool"
        }
      ],
      "stateMutability": "view",
      "type": "function"
    },
    {
      "inputs": [
        {
          "internalType": "address",
          "name": "_owner",
          "type": "address"
        },
        {
          "internalType": "string",
          "name": "product_name",
          "type": "string"
        },
        {
          "internalType": "uint256",
          "name": "product_quantity",
          "type": "uint256"
        },
        {
          "internalType": "uint256",
          "name": "price",
          "type": "uint256"
        },
        {
          "internalType": "string",
          "name": "_dateOfPlant",
          "type": "string"
        },
        {
          "internalType": "string",
          "name": "_harvestDate",
          "type": "string"
        }
      ],
      "name": "mint",
      "outputs": [],
      "stateMutability": "nonpayable",
      "type": "function"
    },
    {
      "inputs": [
        {
          "internalType": "uint256",
          "name": "",
          "type": "uint256"
        }
      ],
      "name": "product",
      "outputs": [
        {
          "internalType": "string",
          "name": "product_name",
          "type": "string"
        },
        {
          "internalType": "uint256",
          "name": "product_quantity",
          "type": "uint256"
        },
        {
          "internalType": "uint256",
          "name": "price",
          "type": "uint256"
        },
        {
          "internalType": "string",
          "name": "_dateOfPlant",
          "type": "string"
        },
        {
          "internalType": "string",
          "name": "_harvestDate",
          "type": "string"
        },
        {
          "internalType": "address",
          "name": "_owner",
          "type": "address"
        },
        {
          "internalType": "uint256",
          "name": "count",
          "type": "uint256"
        }
      ],
      "stateMutability": "view",
      "type": "function"
    },
    {
      "inputs": [
        {
          "internalType": "address",
          "name": "_from",
          "type": "address"
        },
        {
          "internalType": "address payable",
          "name": "_to",
          "type": "address"
        },
        {
          "internalType": "uint256",
          "name": "_index",
          "type": "uint256"
        }
      ],
      "name": "transferFrom",
      "outputs": [
        {
          "internalType": "bool",
          "name": "",
          "type": "bool"
        }
      ],
      "stateMutability": "payable",
      "type": "function"
    },
    {
      "inputs": [
        {
          "internalType": "address",
          "name": "",
          "type": "address"
        }
      ],
      "name": "userSuccessFullTrades",
      "outputs": [
        {
          "internalType": "uint256",
          "name": "",
          "type": "uint256"
        }
      ],
      "stateMutability": "view",
      "type": "function"
    },
    {
      "inputs": [],
      "name": "totalSupply",
      "outputs": [
        {
          "internalType": "uint256",
          "name": "",
          "type": "uint256"
        }
      ],
      "stateMutability": "view",
      "type": "function"
    },
    {
      "inputs": [],
      "name": "totalCommodity",
      "outputs": [
        {
          "components": [
            {
              "internalType": "string",
              "name": "product_name",
              "type": "string"
            },
            {
              "internalType": "uint256",
              "name": "product_quantity",
              "type": "uint256"
            },
            {
              "internalType": "uint256",
              "name": "price",
              "type": "uint256"
            },
            {
              "internalType": "string",
              "name": "_dateOfPlant",
              "type": "string"
            },
            {
              "internalType": "string",
              "name": "_harvestDate",
              "type": "string"
            },
            {
              "internalType": "address",
              "name": "_owner",
              "type": "address"
            },
            {
              "internalType": "uint256",
              "name": "count",
              "type": "uint256"
            }
          ],
          "internalType": "struct ERC721.Products[]",
          "name": "",
          "type": "tuple[]"
        }
      ],
      "stateMutability": "view",
      "type": "function"
    },
    {
      "inputs": [
        {
          "internalType": "address",
          "name": "_owner",
          "type": "address"
        },
        {
          "internalType": "uint256",
          "name": "_index",
          "type": "uint256"
        }
      ],
      "name": "tokenOfOwnerByIndex",
      "outputs": [
        {
          "components": [
            {
              "internalType": "string",
              "name": "product_name",
              "type": "string"
            },
            {
              "internalType": "uint256",
              "name": "product_quantity",
              "type": "uint256"
            },
            {
              "internalType": "uint256",
              "name": "price",
              "type": "uint256"
            },
            {
              "internalType": "string",
              "name": "_dateOfPlant",
              "type": "string"
            },
            {
              "internalType": "string",
              "name": "_harvestDate",
              "type": "string"
            },
            {
              "internalType": "address",
              "name": "_owner",
              "type": "address"
            },
            {
              "internalType": "uint256",
              "name": "count",
              "type": "uint256"
            }
          ],
          "internalType": "struct ERC721.Products",
          "name": "",
          "type": "tuple"
        }
      ],
      "stateMutability": "view",
      "type": "function"
    },
    {
      "inputs": [
        {
          "internalType": "uint256",
          "name": "_index",
          "type": "uint256"
        }
      ],
      "name": "tokenByIndex",
      "outputs": [
        {
          "components": [
            {
              "internalType": "string",
              "name": "product_name",
              "type": "string"
            },
            {
              "internalType": "uint256",
              "name": "product_quantity",
              "type": "uint256"
            },
            {
              "internalType": "uint256",
              "name": "price",
              "type": "uint256"
            },
            {
              "internalType": "string",
              "name": "_dateOfPlant",
              "type": "string"
            },
            {
              "internalType": "string",
              "name": "_harvestDate",
              "type": "string"
            },
            {
              "internalType": "address",
              "name": "_owner",
              "type": "address"
            },
            {
              "internalType": "uint256",
              "name": "count",
              "type": "uint256"
            }
          ],
          "internalType": "struct ERC721.Products",
          "name": "",
          "type": "tuple"
        }
      ],
      "stateMutability": "view",
      "type": "function"
    }
  ],
  "bytecode": "0x608060405234801561001057600080fd5b50612f76806100206000396000f3fe6080604052600436106100915760003560e01c806370a082311161005957806370a08231146101a8578063780bd3f1146101e55780639129b4ad14610228578063a00fea1f14610251578063a230c5241461027c57610091565b806318160ddd1461009657806323b872dd146100c15780632f745c59146100f15780634f6ccce71461012e578063562aa3a51461016b575b600080fd5b3480156100a257600080fd5b506100ab6102b9565b6040516100b89190612203565b60405180910390f35b6100db60048036038101906100d691906122fa565b6102c8565b6040516100e89190612368565b60405180910390f35b3480156100fd57600080fd5b5061011860048036038101906101139190612383565b6104c5565b6040516101259190612524565b60405180910390f35b34801561013a57600080fd5b5061015560048036038101906101509190612546565b6104df565b6040516101629190612524565b60405180910390f35b34801561017757600080fd5b50610192600480360381019061018d9190612573565b6104f7565b60405161019f9190612203565b60405180910390f35b3480156101b457600080fd5b506101cf60048036038101906101ca9190612573565b61050f565b6040516101dc919061270c565b60405180910390f35b3480156101f157600080fd5b5061020c60048036038101906102079190612546565b610817565b60405161021f9796959493929190612787565b60405180910390f35b34801561023457600080fd5b5061024f600480360381019061024a91906129a0565b610a21565b005b34801561025d57600080fd5b50610266610c06565b604051610273919061270c565b60405180910390f35b34801561028857600080fd5b506102a3600480360381019061029e9190612573565b610c15565b6040516102b09190612368565b60405180910390f35b60006102c3610c35565b905090565b60008073ffffffffffffffffffffffffffffffffffffffff168473ffffffffffffffffffffffffffffffffffffffff161415610339576040517f08c379a000000000000000000000000000000000000000000000000000000000815260040161033090612ad7565b60405180910390fd5b600073ffffffffffffffffffffffffffffffffffffffff168373ffffffffffffffffffffffffffffffffffffffff1614156103a9576040517f08c379a00000000000000000000000000000000000000000000000000000000081526004016103a090612b43565b60405180910390fd5b8373ffffffffffffffffffffffffffffffffffffffff168373ffffffffffffffffffffffffffffffffffffffff161415610418576040517f08c379a000000000000000000000000000000000000000000000000000000000815260040161040f90612baf565b60405180910390fd5b60011515600260008673ffffffffffffffffffffffffffffffffffffffff1673ffffffffffffffffffffffffffffffffffffffff16815260200190815260200160002060009054906101000a900460ff161515146104ab576040517f08c379a00000000000000000000000000000000000000000000000000000000081526004016104a290612c1b565b60405180910390fd5b60006104b8858585610c41565b9050809150509392505050565b6104cd612027565b6104d783836112c0565b905092915050565b6104e7612027565b6104f082611564565b9050919050565b60036020528060005260406000206000915090505481565b6060600073ffffffffffffffffffffffffffffffffffffffff168273ffffffffffffffffffffffffffffffffffffffff16141561054b57600080fd5b6000600160008473ffffffffffffffffffffffffffffffffffffffff1673ffffffffffffffffffffffffffffffffffffffff168152602001908152602001600020905080805480602002602001604051908101604052809291908181526020016000905b8282101561080b57838290600052602060002090600702016040518060e00160405290816000820180546105e290612c6a565b80601f016020809104026020016040519081016040528092919081815260200182805461060e90612c6a565b801561065b5780601f106106305761010080835404028352916020019161065b565b820191906000526020600020905b81548152906001019060200180831161063e57829003601f168201915b50505050508152602001600182015481526020016002820154815260200160038201805461068890612c6a565b80601f01602080910402602001604051908101604052809291908181526020018280546106b490612c6a565b80156107015780601f106106d657610100808354040283529160200191610701565b820191906000526020600020905b8154815290600101906020018083116106e457829003601f168201915b5050505050815260200160048201805461071a90612c6a565b80601f016020809104026020016040519081016040528092919081815260200182805461074690612c6a565b80156107935780601f1061076857610100808354040283529160200191610793565b820191906000526020600020905b81548152906001019060200180831161077657829003601f168201915b505050505081526020016005820160009054906101000a900473ffffffffffffffffffffffffffffffffffffffff1673ffffffffffffffffffffffffffffffffffffffff1673ffffffffffffffffffffffffffffffffffffffff168152602001600682015481525050815260200190600101906105af565b50505050915050919050565b6000818154811061082757600080fd5b906000526020600020906007020160009150905080600001805461084a90612c6a565b80601f016020809104026020016040519081016040528092919081815260200182805461087690612c6a565b80156108c35780601f10610898576101008083540402835291602001916108c3565b820191906000526020600020905b8154815290600101906020018083116108a657829003601f168201915b5050505050908060010154908060020154908060030180546108e490612c6a565b80601f016020809104026020016040519081016040528092919081815260200182805461091090612c6a565b801561095d5780601f106109325761010080835404028352916020019161095d565b820191906000526020600020905b81548152906001019060200180831161094057829003601f168201915b50505050509080600401805461097290612c6a565b80601f016020809104026020016040519081016040528092919081815260200182805461099e90612c6a565b80156109eb5780601f106109c0576101008083540402835291602001916109eb565b820191906000526020600020905b8154815290600101906020018083116109ce57829003601f168201915b5050505050908060050160009054906101000a900473ffffffffffffffffffffffffffffffffffffffff16908060060154905087565b60006040518060e0016040528089815260200188815260200187815260200186868080601f016020809104026020016040519081016040528093929190818152602001838380828437600081840152601f19601f82011690508083019250505050505050815260200184848080601f016020809104026020016040519081016040528093929190818152602001838380828437600081840152601f19601f8201169050808301925050505050505081526020018a73ffffffffffffffffffffffffffffffffffffffff1681526020016001600080549050610b029190612ccb565b815250905060008190806001815401808255809150506001900390600052602060002090600702016000909190919091506000820151816000019080519060200190610b4f92919061207a565b5060208201518160010155604082015181600201556060820151816003019080519060200190610b8092919061207a565b506080820151816004019080519060200190610b9d92919061207a565b5060a08201518160050160006101000a81548173ffffffffffffffffffffffffffffffffffffffff021916908373ffffffffffffffffffffffffffffffffffffffff16021790555060c082015181600601555050610bfb89826117ca565b505050505050505050565b6060610c1061194d565b905090565b60026020528060005260406000206000915054906101000a900460ff1681565b60008080549050905090565b60008060008381548110610c5857610c57612d21565b5b90600052602060002090600702016040518060e0016040529081600082018054610c8190612c6a565b80601f0160208091040260200160405190810160405280929190818152602001828054610cad90612c6a565b8015610cfa5780601f10610ccf57610100808354040283529160200191610cfa565b820191906000526020600020905b815481529060010190602001808311610cdd57829003601f168201915b505050505081526020016001820154815260200160028201548152602001600382018054610d2790612c6a565b80601f0160208091040260200160405190810160405280929190818152602001828054610d5390612c6a565b8015610da05780601f10610d7557610100808354040283529160200191610da0565b820191906000526020600020905b815481529060010190602001808311610d8357829003601f168201915b50505050508152602001600482018054610db990612c6a565b80601f0160208091040260200160405190810160405280929190818152602001828054610de590612c6a565b8015610e325780601f10610e0757610100808354040283529160200191610e32565b820191906000526020600020905b815481529060010190602001808311610e1557829003601f168201915b505050505081526020016005820160009054906101000a900473ffffffffffffffffffffffffffffffffffffffff1673ffffffffffffffffffffffffffffffffffffffff1673ffffffffffffffffffffffffffffffffffffffff1681526020016006820154815250509050600081604001511415610ee5576040517f08c379a0000000000000000000000000000000000000000000000000000000008152600401610edc90612d9c565b60405180910390fd5b600081602001511415610f2d576040517f08c379a0000000000000000000000000000000000000000000000000000000008152600401610f2490612e08565b60405180910390fd5b8473ffffffffffffffffffffffffffffffffffffffff168160a0015173ffffffffffffffffffffffffffffffffffffffff1614610f9f576040517f08c379a0000000000000000000000000000000000000000000000000000000008152600401610f9690612e74565b60405180910390fd5b60008160c001519050610fb28682611bd6565b848260a0019073ffffffffffffffffffffffffffffffffffffffff16908173ffffffffffffffffffffffffffffffffffffffff1681525050610ff384611e1f565b6000829080600181540180825580915050600190039060005260206000209060070201600090919091909150600082015181600001908051906020019061103b92919061207a565b506020820151816001015560408201518160020155606082015181600301908051906020019061106c92919061207a565b50608082015181600401908051906020019061108992919061207a565b5060a08201518160050160006101000a81548173ffffffffffffffffffffffffffffffffffffffff021916908373ffffffffffffffffffffffffffffffffffffffff16021790555060c0820151816006015550506001600260008773ffffffffffffffffffffffffffffffffffffffff1673ffffffffffffffffffffffffffffffffffffffff16815260200190815260200160002060006101000a81548160ff0219169083151502179055506001600360008873ffffffffffffffffffffffffffffffffffffffff1673ffffffffffffffffffffffffffffffffffffffff16815260200190815260200160002060008282546111859190612ccb565b92505081905550600160008673ffffffffffffffffffffffffffffffffffffffff1673ffffffffffffffffffffffffffffffffffffffff168152602001908152602001600020829080600181540180825580915050600190039060005260206000209060070201600090919091909150600082015181600001908051906020019061121192919061207a565b506020820151816001015560408201518160020155606082015181600301908051906020019061124292919061207a565b50608082015181600401908051906020019061125f92919061207a565b5060a08201518160050160006101000a81548173ffffffffffffffffffffffffffffffffffffffff021916908373ffffffffffffffffffffffffffffffffffffffff16021790555060c0820151816006015550506001925050509392505050565b6112c8612027565b600160008473ffffffffffffffffffffffffffffffffffffffff1673ffffffffffffffffffffffffffffffffffffffff168152602001908152602001600020828154811061131957611318612d21565b5b90600052602060002090600702016040518060e001604052908160008201805461134290612c6a565b80601f016020809104026020016040519081016040528092919081815260200182805461136e90612c6a565b80156113bb5780601f10611390576101008083540402835291602001916113bb565b820191906000526020600020905b81548152906001019060200180831161139e57829003601f168201915b5050505050815260200160018201548152602001600282015481526020016003820180546113e890612c6a565b80601f016020809104026020016040519081016040528092919081815260200182805461141490612c6a565b80156114615780601f1061143657610100808354040283529160200191611461565b820191906000526020600020905b81548152906001019060200180831161144457829003601f168201915b5050505050815260200160048201805461147a90612c6a565b80601f01602080910402602001604051908101604052809291908181526020018280546114a690612c6a565b80156114f35780601f106114c8576101008083540402835291602001916114f3565b820191906000526020600020905b8154815290600101906020018083116114d657829003601f168201915b505050505081526020016005820160009054906101000a900473ffffffffffffffffffffffffffffffffffffffff1673ffffffffffffffffffffffffffffffffffffffff1673ffffffffffffffffffffffffffffffffffffffff168152602001600682015481525050905092915050565b61156c612027565b600082815481106115805761157f612d21565b5b90600052602060002090600702016040518060e00160405290816000820180546115a990612c6a565b80601f01602080910402602001604051908101604052809291908181526020018280546115d590612c6a565b80156116225780601f106115f757610100808354040283529160200191611622565b820191906000526020600020905b81548152906001019060200180831161160557829003601f168201915b50505050508152602001600182015481526020016002820154815260200160038201805461164f90612c6a565b80601f016020809104026020016040519081016040528092919081815260200182805461167b90612c6a565b80156116c85780601f1061169d576101008083540402835291602001916116c8565b820191906000526020600020905b8154815290600101906020018083116116ab57829003601f168201915b505050505081526020016004820180546116e190612c6a565b80601f016020809104026020016040519081016040528092919081815260200182805461170d90612c6a565b801561175a5780601f1061172f5761010080835404028352916020019161175a565b820191906000526020600020905b81548152906001019060200180831161173d57829003601f168201915b505050505081526020016005820160009054906101000a900473ffffffffffffffffffffffffffffffffffffffff1673ffffffffffffffffffffffffffffffffffffffff1673ffffffffffffffffffffffffffffffffffffffff1681526020016006820154815250509050919050565b600160008373ffffffffffffffffffffffffffffffffffffffff1673ffffffffffffffffffffffffffffffffffffffff168152602001908152602001600020819080600181540180825580915050600190039060005260206000209060070201600090919091909150600082015181600001908051906020019061184f92919061207a565b506020820151816001015560408201518160020155606082015181600301908051906020019061188092919061207a565b50608082015181600401908051906020019061189d92919061207a565b5060a08201518160050160006101000a81548173ffffffffffffffffffffffffffffffffffffffff021916908373ffffffffffffffffffffffffffffffffffffffff16021790555060c0820151816006015550506001600260008473ffffffffffffffffffffffffffffffffffffffff1673ffffffffffffffffffffffffffffffffffffffff16815260200190815260200160002060006101000a81548160ff0219169083151502179055505050565b60606000805480602002602001604051908101604052809291908181526020016000905b82821015611bcd57838290600052602060002090600702016040518060e00160405290816000820180546119a490612c6a565b80601f01602080910402602001604051908101604052809291908181526020018280546119d090612c6a565b8015611a1d5780601f106119f257610100808354040283529160200191611a1d565b820191906000526020600020905b815481529060010190602001808311611a0057829003601f168201915b505050505081526020016001820154815260200160028201548152602001600382018054611a4a90612c6a565b80601f0160208091040260200160405190810160405280929190818152602001828054611a7690612c6a565b8015611ac35780601f10611a9857610100808354040283529160200191611ac3565b820191906000526020600020905b815481529060010190602001808311611aa657829003601f168201915b50505050508152602001600482018054611adc90612c6a565b80601f0160208091040260200160405190810160405280929190818152602001828054611b0890612c6a565b8015611b555780601f10611b2a57610100808354040283529160200191611b55565b820191906000526020600020905b815481529060010190602001808311611b3857829003601f168201915b505050505081526020016005820160009054906101000a900473ffffffffffffffffffffffffffffffffffffffff1673ffffffffffffffffffffffffffffffffffffffff1673ffffffffffffffffffffffffffffffffffffffff16815260200160068201548152505081526020019060010190611971565b50505050905090565b6000600160008473ffffffffffffffffffffffffffffffffffffffff1673ffffffffffffffffffffffffffffffffffffffff168152602001908152602001600020905060008290505b60018280549050611c309190612e94565b811015611d805781600182611c459190612ccb565b81548110611c5657611c55612d21565b5b9060005260206000209060070201828281548110611c7757611c76612d21565b5b90600052602060002090600702016000820181600001908054611c9990612c6a565b611ca4929190612100565b5060018201548160010155600282015481600201556003820181600301908054611ccd90612c6a565b611cd8929190612100565b506004820181600401908054611ced90612c6a565b611cf8929190612100565b506005820160009054906101000a900473ffffffffffffffffffffffffffffffffffffffff168160050160006101000a81548173ffffffffffffffffffffffffffffffffffffffff021916908373ffffffffffffffffffffffffffffffffffffffff160217905550600682015481600601559050508080611d7890612ec8565b915050611c1f565b5080805480611d9257611d91612f11565b5b600190038181906000526020600020906007020160008082016000611db7919061218d565b60018201600090556002820160009055600382016000611dd7919061218d565b600482016000611de7919061218d565b6005820160006101000a81549073ffffffffffffffffffffffffffffffffffffffff0219169055600682016000905550509055505050565b60008190505b6001600080549050611e379190612e94565b811015611f89576000600182611e4d9190612ccb565b81548110611e5e57611e5d612d21565b5b906000526020600020906007020160008281548110611e8057611e7f612d21565b5b90600052602060002090600702016000820181600001908054611ea290612c6a565b611ead929190612100565b5060018201548160010155600282015481600201556003820181600301908054611ed690612c6a565b611ee1929190612100565b506004820181600401908054611ef690612c6a565b611f01929190612100565b506005820160009054906101000a900473ffffffffffffffffffffffffffffffffffffffff168160050160006101000a81548173ffffffffffffffffffffffffffffffffffffffff021916908373ffffffffffffffffffffffffffffffffffffffff160217905550600682015481600601559050508080611f8190612ec8565b915050611e25565b506000805480611f9c57611f9b612f11565b5b600190038181906000526020600020906007020160008082016000611fc1919061218d565b60018201600090556002820160009055600382016000611fe1919061218d565b600482016000611ff1919061218d565b6005820160006101000a81549073ffffffffffffffffffffffffffffffffffffffff021916905560068201600090555050905550565b6040518060e001604052806060815260200160008152602001600081526020016060815260200160608152602001600073ffffffffffffffffffffffffffffffffffffffff168152602001600081525090565b82805461208690612c6a565b90600052602060002090601f0160209004810192826120a857600085556120ef565b82601f106120c157805160ff19168380011785556120ef565b828001600101855582156120ef579182015b828111156120ee5782518255916020019190600101906120d3565b5b5090506120fc91906121cd565b5090565b82805461210c90612c6a565b90600052602060002090601f01602090048101928261212e576000855561217c565b82601f1061213f578054855561217c565b8280016001018555821561217c57600052602060002091601f016020900482015b8281111561217b578254825591600101919060010190612160565b5b50905061218991906121cd565b5090565b50805461219990612c6a565b6000825580601f106121ab57506121ca565b601f0160209004906000526020600020908101906121c991906121cd565b5b50565b5b808211156121e65760008160009055506001016121ce565b5090565b6000819050919050565b6121fd816121ea565b82525050565b600060208201905061221860008301846121f4565b92915050565b6000604051905090565b600080fd5b600080fd5b600073ffffffffffffffffffffffffffffffffffffffff82169050919050565b600061225d82612232565b9050919050565b61226d81612252565b811461227857600080fd5b50565b60008135905061228a81612264565b92915050565b600061229b82612232565b9050919050565b6122ab81612290565b81146122b657600080fd5b50565b6000813590506122c8816122a2565b92915050565b6122d7816121ea565b81146122e257600080fd5b50565b6000813590506122f4816122ce565b92915050565b60008060006060848603121561231357612312612228565b5b60006123218682870161227b565b9350506020612332868287016122b9565b9250506040612343868287016122e5565b9150509250925092565b60008115159050919050565b6123628161234d565b82525050565b600060208201905061237d6000830184612359565b92915050565b6000806040838503121561239a57612399612228565b5b60006123a88582860161227b565b92505060206123b9858286016122e5565b9150509250929050565b600081519050919050565b600082825260208201905092915050565b60005b838110156123fd5780820151818401526020810190506123e2565b8381111561240c576000848401525b50505050565b6000601f19601f8301169050919050565b600061242e826123c3565b61243881856123ce565b93506124488185602086016123df565b61245181612412565b840191505092915050565b612465816121ea565b82525050565b61247481612252565b82525050565b600060e08301600083015184820360008601526124978282612423565b91505060208301516124ac602086018261245c565b5060408301516124bf604086018261245c565b50606083015184820360608601526124d78282612423565b915050608083015184820360808601526124f18282612423565b91505060a083015161250660a086018261246b565b5060c083015161251960c086018261245c565b508091505092915050565b6000602082019050818103600083015261253e818461247a565b905092915050565b60006020828403121561255c5761255b612228565b5b600061256a848285016122e5565b91505092915050565b60006020828403121561258957612588612228565b5b60006125978482850161227b565b91505092915050565b600081519050919050565b600082825260208201905092915050565b6000819050602082019050919050565b600060e08301600083015184820360008601526125e98282612423565b91505060208301516125fe602086018261245c565b506040830151612611604086018261245c565b50606083015184820360608601526126298282612423565b915050608083015184820360808601526126438282612423565b91505060a083015161265860a086018261246b565b5060c083015161266b60c086018261245c565b508091505092915050565b600061268283836125cc565b905092915050565b6000602082019050919050565b60006126a2826125a0565b6126ac81856125ab565b9350836020820285016126be856125bc565b8060005b858110156126fa57848403895281516126db8582612676565b94506126e68361268a565b925060208a019950506001810190506126c2565b50829750879550505050505092915050565b600060208201905081810360008301526127268184612697565b905092915050565b600082825260208201905092915050565b600061274a826123c3565b612754818561272e565b93506127648185602086016123df565b61276d81612412565b840191505092915050565b61278181612252565b82525050565b600060e08201905081810360008301526127a1818a61273f565b90506127b060208301896121f4565b6127bd60408301886121f4565b81810360608301526127cf818761273f565b905081810360808301526127e3818661273f565b90506127f260a0830185612778565b6127ff60c08301846121f4565b98975050505050505050565b600080fd5b600080fd5b7f4e487b7100000000000000000000000000000000000000000000000000000000600052604160045260246000fd5b61284d82612412565b810181811067ffffffffffffffff8211171561286c5761286b612815565b5b80604052505050565b600061287f61221e565b905061288b8282612844565b919050565b600067ffffffffffffffff8211156128ab576128aa612815565b5b6128b482612412565b9050602081019050919050565b82818337600083830152505050565b60006128e36128de84612890565b612875565b9050828152602081018484840111156128ff576128fe612810565b5b61290a8482856128c1565b509392505050565b600082601f8301126129275761292661280b565b5b81356129378482602086016128d0565b91505092915050565b600080fd5b600080fd5b60008083601f8401126129605761295f61280b565b5b8235905067ffffffffffffffff81111561297d5761297c612940565b5b60208301915083600182028301111561299957612998612945565b5b9250929050565b60008060008060008060008060c0898b0312156129c0576129bf612228565b5b60006129ce8b828c0161227b565b985050602089013567ffffffffffffffff8111156129ef576129ee61222d565b5b6129fb8b828c01612912565b9750506040612a0c8b828c016122e5565b9650506060612a1d8b828c016122e5565b955050608089013567ffffffffffffffff811115612a3e57612a3d61222d565b5b612a4a8b828c0161294a565b945094505060a089013567ffffffffffffffff811115612a6d57612a6c61222d565b5b612a798b828c0161294a565b92509250509295985092959890939650565b7f496e76616c696420616464726573730000000000000000000000000000000000600082015250565b6000612ac1600f8361272e565b9150612acc82612a8b565b602082019050919050565b60006020820190508181036000830152612af081612ab4565b9050919050565b7f20496e76616c6964206164647265737300000000000000000000000000000000600082015250565b6000612b2d60108361272e565b9150612b3882612af7565b602082019050919050565b60006020820190508181036000830152612b5c81612b20565b9050919050565b7f796f752063616e6e6f742073656e6420746f20796f757273656c660000000000600082015250565b6000612b99601b8361272e565b9150612ba482612b63565b602082019050919050565b60006020820190508181036000830152612bc881612b8c565b9050919050565b7f6e6f742061206d656d6265720000000000000000000000000000000000000000600082015250565b6000612c05600c8361272e565b9150612c1082612bcf565b602082019050919050565b60006020820190508181036000830152612c3481612bf8565b9050919050565b7f4e487b7100000000000000000000000000000000000000000000000000000000600052602260045260246000fd5b60006002820490506001821680612c8257607f821691505b60208210811415612c9657612c95612c3b565b5b50919050565b7f4e487b7100000000000000000000000000000000000000000000000000000000600052601160045260246000fd5b6000612cd6826121ea565b9150612ce1836121ea565b9250827fffffffffffffffffffffffffffffffffffffffffffffffffffffffffffffffff03821115612d1657612d15612c9c565b5b828201905092915050565b7f4e487b7100000000000000000000000000000000000000000000000000000000600052603260045260246000fd5b7f6e6f2070726f6475637420666f756e6400000000000000000000000000000000600082015250565b6000612d8660108361272e565b9150612d9182612d50565b602082019050919050565b60006020820190508181036000830152612db581612d79565b9050919050565b7f70726f64756374207175616e74697479206e6f74207370656369666965640000600082015250565b6000612df2601e8361272e565b9150612dfd82612dbc565b602082019050919050565b60006020820190508181036000830152612e2181612de5565b9050919050565b7f20796f7520646f6e74206f776e20746869732070726f64756374000000000000600082015250565b6000612e5e601a8361272e565b9150612e6982612e28565b602082019050919050565b60006020820190508181036000830152612e8d81612e51565b9050919050565b6000612e9f826121ea565b9150612eaa836121ea565b925082821015612ebd57612ebc612c9c565b5b828203905092915050565b6000612ed3826121ea565b91507fffffffffffffffffffffffffffffffffffffffffffffffffffffffffffffffff821415612f0657612f05612c9c565b5b600182019050919050565b7f4e487b7100000000000000000000000000000000000000000000000000000000600052603160045260246000fdfea2646970667358221220d95284018d9e7809a98c2ec3c05b50d09903af2e47bd4a410891c0d3d06c7bea64736f6c634300080b0033",
  "immutableReferences": {},
  "source": "// SPDX-License-Identifier: MIT\r\npragma solidity >=0.4.22 <0.9.0;\r\n\r\nimport './ERC721.sol';\r\n\r\ncontract ERC721Enumerable is ERC721{\r\n    \r\n    //returns all commodity in a list\r\n    function totalSupply() public view override(ERC721) returns(uint256){\r\n        return super.totalSupply();\r\n    }\r\n    function totalCommodity() public override(ERC721) view returns(ERC721.Products[] memory){\r\n        return super.totalCommodity();\r\n    }\r\n    //returns all comodity by a farmer and their index\r\n    function tokenOfOwnerByIndex(address _owner, uint256 _index) public view override(ERC721) returns(ERC721.Products memory){\r\n        return super.tokenOfOwnerByIndex(_owner,_index);\r\n    }\r\n    function tokenByIndex(uint256 _index) public override(ERC721) view returns(ERC721.Products memory){\r\n        return super.tokenByIndex(_index);\r\n    }\r\n}",
  "sourcePath": "C:\\Users\\olive\\Documents\\MyProjects\\decentralized_agriculture_marketplace\\src\\contracts\\ERC721Enumerable.sol",
  "compiler": {
    "name": "solc",
    "version": "0.8.11+commit.d7f03943.Emscripten.clang"
  },
  "schemaVersion": "3.4.5",
  "updatedAt": "2022-08-13T07:44:02.445Z",
  "devdoc": {
    "kind": "dev",
    "methods": {},
    "version": 1
  },
  "userdoc": {
    "kind": "user",
    "methods": {},
    "version": 1
  }
}