{
  "contractName": "ERC721Connector",
  "abi": [
    {
      "inputs": [
        {
          "internalType": "address",
          "name": "_owner",
          "type": "address"
        }
      ],
      "name": "balanceOf",
      "outputs": [
        {
          "components": [
            {
              "internalType": "string",
              "name": "product_name",
              "type": "string"
            },
            {
              "internalType": "uint256",
              "name": "product_quantity",
              "type": "uint256"
            },
            {
              "internalType": "uint256",
              "name": "price",
              "type": "uint256"
            },
            {
              "internalType": "string",
              "name": "_dateOfPlant",
              "type": "string"
            },
            {
              "internalType": "string",
              "name": "_harvestDate",
              "type": "string"
            },
            {
              "internalType": "address",
              "name": "_owner",
              "type": "address"
            },
            {
              "internalType": "uint256",
              "name": "count",
              "type": "uint256"
            }
          ],
          "internalType": "struct ERC721.Products[]",
          "name": "",
          "type": "tuple[]"
        }
      ],
      "stateMutability": "view",
      "type": "function"
    },
    {
      "inputs": [
        {
          "internalType": "address",
          "name": "",
          "type": "address"
        }
      ],
      "name": "isMember",
      "outputs": [
        {
          "internalType": "bool",
          "name": "",
          "type": "bool"
        }
      ],
      "stateMutability": "view",
      "type": "function"
    },
    {
      "inputs": [
        {
          "internalType": "address",
          "name": "_owner",
          "type": "address"
        },
        {
          "internalType": "string",
          "name": "product_name",
          "type": "string"
        },
        {
          "internalType": "uint256",
          "name": "product_quantity",
          "type": "uint256"
        },
        {
          "internalType": "uint256",
          "name": "price",
          "type": "uint256"
        },
        {
          "internalType": "string",
          "name": "_dateOfPlant",
          "type": "string"
        },
        {
          "internalType": "string",
          "name": "_harvestDate",
          "type": "string"
        }
      ],
      "name": "mint",
      "outputs": [],
      "stateMutability": "nonpayable",
      "type": "function"
    },
    {
      "inputs": [
        {
          "internalType": "uint256",
          "name": "",
          "type": "uint256"
        }
      ],
      "name": "product",
      "outputs": [
        {
          "internalType": "string",
          "name": "product_name",
          "type": "string"
        },
        {
          "internalType": "uint256",
          "name": "product_quantity",
          "type": "uint256"
        },
        {
          "internalType": "uint256",
          "name": "price",
          "type": "uint256"
        },
        {
          "internalType": "string",
          "name": "_dateOfPlant",
          "type": "string"
        },
        {
          "internalType": "string",
          "name": "_harvestDate",
          "type": "string"
        },
        {
          "internalType": "address",
          "name": "_owner",
          "type": "address"
        },
        {
          "internalType": "uint256",
          "name": "count",
          "type": "uint256"
        }
      ],
      "stateMutability": "view",
      "type": "function"
    },
    {
      "inputs": [
        {
          "internalType": "uint256",
          "name": "_index",
          "type": "uint256"
        }
      ],
      "name": "tokenByIndex",
      "outputs": [
        {
          "components": [
            {
              "internalType": "string",
              "name": "product_name",
              "type": "string"
            },
            {
              "internalType": "uint256",
              "name": "product_quantity",
              "type": "uint256"
            },
            {
              "internalType": "uint256",
              "name": "price",
              "type": "uint256"
            },
            {
              "internalType": "string",
              "name": "_dateOfPlant",
              "type": "string"
            },
            {
              "internalType": "string",
              "name": "_harvestDate",
              "type": "string"
            },
            {
              "internalType": "address",
              "name": "_owner",
              "type": "address"
            },
            {
              "internalType": "uint256",
              "name": "count",
              "type": "uint256"
            }
          ],
          "internalType": "struct ERC721.Products",
          "name": "",
          "type": "tuple"
        }
      ],
      "stateMutability": "view",
      "type": "function"
    },
    {
      "inputs": [
        {
          "internalType": "address",
          "name": "_owner",
          "type": "address"
        },
        {
          "internalType": "uint256",
          "name": "_index",
          "type": "uint256"
        }
      ],
      "name": "tokenOfOwnerByIndex",
      "outputs": [
        {
          "components": [
            {
              "internalType": "string",
              "name": "product_name",
              "type": "string"
            },
            {
              "internalType": "uint256",
              "name": "product_quantity",
              "type": "uint256"
            },
            {
              "internalType": "uint256",
              "name": "price",
              "type": "uint256"
            },
            {
              "internalType": "string",
              "name": "_dateOfPlant",
              "type": "string"
            },
            {
              "internalType": "string",
              "name": "_harvestDate",
              "type": "string"
            },
            {
              "internalType": "address",
              "name": "_owner",
              "type": "address"
            },
            {
              "internalType": "uint256",
              "name": "count",
              "type": "uint256"
            }
          ],
          "internalType": "struct ERC721.Products",
          "name": "",
          "type": "tuple"
        }
      ],
      "stateMutability": "view",
      "type": "function"
    },
    {
      "inputs": [],
      "name": "totalCommodity",
      "outputs": [
        {
          "components": [
            {
              "internalType": "string",
              "name": "product_name",
              "type": "string"
            },
            {
              "internalType": "uint256",
              "name": "product_quantity",
              "type": "uint256"
            },
            {
              "internalType": "uint256",
              "name": "price",
              "type": "uint256"
            },
            {
              "internalType": "string",
              "name": "_dateOfPlant",
              "type": "string"
            },
            {
              "internalType": "string",
              "name": "_harvestDate",
              "type": "string"
            },
            {
              "internalType": "address",
              "name": "_owner",
              "type": "address"
            },
            {
              "internalType": "uint256",
              "name": "count",
              "type": "uint256"
            }
          ],
          "internalType": "struct ERC721.Products[]",
          "name": "",
          "type": "tuple[]"
        }
      ],
      "stateMutability": "view",
      "type": "function"
    },
    {
      "inputs": [],
      "name": "totalSupply",
      "outputs": [
        {
          "internalType": "uint256",
          "name": "",
          "type": "uint256"
        }
      ],
      "stateMutability": "view",
      "type": "function"
    },
    {
      "inputs": [
        {
          "internalType": "address",
          "name": "_from",
          "type": "address"
        },
        {
          "internalType": "address payable",
          "name": "_to",
          "type": "address"
        },
        {
          "internalType": "uint256",
          "name": "_index",
          "type": "uint256"
        }
      ],
      "name": "transferFrom",
      "outputs": [
        {
          "internalType": "bool",
          "name": "",
          "type": "bool"
        }
      ],
      "stateMutability": "payable",
      "type": "function"
    }
  ],
  "bytecode": "0x608060405234801561001057600080fd5b50612ebf806100206000396000f3fe6080604052600436106100865760003560e01c806370a082311161005957806370a0823114610160578063780bd3f11461019d5780639129b4ad146101e0578063a00fea1f14610209578063a230c5241461023457610086565b806318160ddd1461008b57806323b872dd146100b65780632f745c59146100e65780634f6ccce714610123575b600080fd5b34801561009757600080fd5b506100a0610271565b6040516100ad919061214c565b60405180910390f35b6100d060048036038101906100cb9190612243565b610280565b6040516100dd91906122b1565b60405180910390f35b3480156100f257600080fd5b5061010d600480360381019061010891906122cc565b61047d565b60405161011a919061246d565b60405180910390f35b34801561012f57600080fd5b5061014a6004803603810190610145919061248f565b610497565b604051610157919061246d565b60405180910390f35b34801561016c57600080fd5b50610187600480360381019061018291906124bc565b6104af565b6040516101949190612655565b60405180910390f35b3480156101a957600080fd5b506101c460048036038101906101bf919061248f565b6107b7565b6040516101d797969594939291906126d0565b60405180910390f35b3480156101ec57600080fd5b50610207600480360381019061020291906128e9565b6109c1565b005b34801561021557600080fd5b5061021e610ba6565b60405161022b9190612655565b60405180910390f35b34801561024057600080fd5b5061025b600480360381019061025691906124bc565b610bb5565b60405161026891906122b1565b60405180910390f35b600061027b610bd5565b905090565b60008073ffffffffffffffffffffffffffffffffffffffff168473ffffffffffffffffffffffffffffffffffffffff1614156102f1576040517f08c379a00000000000000000000000000000000000000000000000000000000081526004016102e890612a20565b60405180910390fd5b600073ffffffffffffffffffffffffffffffffffffffff168373ffffffffffffffffffffffffffffffffffffffff161415610361576040517f08c379a000000000000000000000000000000000000000000000000000000000815260040161035890612a8c565b60405180910390fd5b8373ffffffffffffffffffffffffffffffffffffffff168373ffffffffffffffffffffffffffffffffffffffff1614156103d0576040517f08c379a00000000000000000000000000000000000000000000000000000000081526004016103c790612af8565b60405180910390fd5b60011515600260008673ffffffffffffffffffffffffffffffffffffffff1673ffffffffffffffffffffffffffffffffffffffff16815260200190815260200160002060009054906101000a900460ff16151514610463576040517f08c379a000000000000000000000000000000000000000000000000000000000815260040161045a90612b64565b60405180910390fd5b6000610470858585610be1565b9050809150509392505050565b610485611f70565b61048f8383611209565b905092915050565b61049f611f70565b6104a8826114ad565b9050919050565b6060600073ffffffffffffffffffffffffffffffffffffffff168273ffffffffffffffffffffffffffffffffffffffff1614156104eb57600080fd5b6000600160008473ffffffffffffffffffffffffffffffffffffffff1673ffffffffffffffffffffffffffffffffffffffff168152602001908152602001600020905080805480602002602001604051908101604052809291908181526020016000905b828210156107ab57838290600052602060002090600702016040518060e001604052908160008201805461058290612bb3565b80601f01602080910402602001604051908101604052809291908181526020018280546105ae90612bb3565b80156105fb5780601f106105d0576101008083540402835291602001916105fb565b820191906000526020600020905b8154815290600101906020018083116105de57829003601f168201915b50505050508152602001600182015481526020016002820154815260200160038201805461062890612bb3565b80601f016020809104026020016040519081016040528092919081815260200182805461065490612bb3565b80156106a15780601f10610676576101008083540402835291602001916106a1565b820191906000526020600020905b81548152906001019060200180831161068457829003601f168201915b505050505081526020016004820180546106ba90612bb3565b80601f01602080910402602001604051908101604052809291908181526020018280546106e690612bb3565b80156107335780601f1061070857610100808354040283529160200191610733565b820191906000526020600020905b81548152906001019060200180831161071657829003601f168201915b505050505081526020016005820160009054906101000a900473ffffffffffffffffffffffffffffffffffffffff1673ffffffffffffffffffffffffffffffffffffffff1673ffffffffffffffffffffffffffffffffffffffff1681526020016006820154815250508152602001906001019061054f565b50505050915050919050565b600081815481106107c757600080fd5b90600052602060002090600702016000915090508060000180546107ea90612bb3565b80601f016020809104026020016040519081016040528092919081815260200182805461081690612bb3565b80156108635780601f1061083857610100808354040283529160200191610863565b820191906000526020600020905b81548152906001019060200180831161084657829003601f168201915b50505050509080600101549080600201549080600301805461088490612bb3565b80601f01602080910402602001604051908101604052809291908181526020018280546108b090612bb3565b80156108fd5780601f106108d2576101008083540402835291602001916108fd565b820191906000526020600020905b8154815290600101906020018083116108e057829003601f168201915b50505050509080600401805461091290612bb3565b80601f016020809104026020016040519081016040528092919081815260200182805461093e90612bb3565b801561098b5780601f106109605761010080835404028352916020019161098b565b820191906000526020600020905b81548152906001019060200180831161096e57829003601f168201915b5050505050908060050160009054906101000a900473ffffffffffffffffffffffffffffffffffffffff16908060060154905087565b60006040518060e0016040528089815260200188815260200187815260200186868080601f016020809104026020016040519081016040528093929190818152602001838380828437600081840152601f19601f82011690508083019250505050505050815260200184848080601f016020809104026020016040519081016040528093929190818152602001838380828437600081840152601f19601f8201169050808301925050505050505081526020018a73ffffffffffffffffffffffffffffffffffffffff1681526020016001600080549050610aa29190612c14565b815250905060008190806001815401808255809150506001900390600052602060002090600702016000909190919091506000820151816000019080519060200190610aef929190611fc3565b5060208201518160010155604082015181600201556060820151816003019080519060200190610b20929190611fc3565b506080820151816004019080519060200190610b3d929190611fc3565b5060a08201518160050160006101000a81548173ffffffffffffffffffffffffffffffffffffffff021916908373ffffffffffffffffffffffffffffffffffffffff16021790555060c082015181600601555050610b9b8982611713565b505050505050505050565b6060610bb0611896565b905090565b60026020528060005260406000206000915054906101000a900460ff1681565b60008080549050905090565b60008060008381548110610bf857610bf7612c6a565b5b90600052602060002090600702016040518060e0016040529081600082018054610c2190612bb3565b80601f0160208091040260200160405190810160405280929190818152602001828054610c4d90612bb3565b8015610c9a5780601f10610c6f57610100808354040283529160200191610c9a565b820191906000526020600020905b815481529060010190602001808311610c7d57829003601f168201915b505050505081526020016001820154815260200160028201548152602001600382018054610cc790612bb3565b80601f0160208091040260200160405190810160405280929190818152602001828054610cf390612bb3565b8015610d405780601f10610d1557610100808354040283529160200191610d40565b820191906000526020600020905b815481529060010190602001808311610d2357829003601f168201915b50505050508152602001600482018054610d5990612bb3565b80601f0160208091040260200160405190810160405280929190818152602001828054610d8590612bb3565b8015610dd25780601f10610da757610100808354040283529160200191610dd2565b820191906000526020600020905b815481529060010190602001808311610db557829003601f168201915b505050505081526020016005820160009054906101000a900473ffffffffffffffffffffffffffffffffffffffff1673ffffffffffffffffffffffffffffffffffffffff1673ffffffffffffffffffffffffffffffffffffffff1681526020016006820154815250509050600081604001511415610e85576040517f08c379a0000000000000000000000000000000000000000000000000000000008152600401610e7c90612ce5565b60405180910390fd5b600081602001511415610ecd576040517f08c379a0000000000000000000000000000000000000000000000000000000008152600401610ec490612d51565b60405180910390fd5b8473ffffffffffffffffffffffffffffffffffffffff168160a0015173ffffffffffffffffffffffffffffffffffffffff1614610f3f576040517f08c379a0000000000000000000000000000000000000000000000000000000008152600401610f3690612dbd565b60405180910390fd5b60008160c001519050610f528682611b1f565b848260a0019073ffffffffffffffffffffffffffffffffffffffff16908173ffffffffffffffffffffffffffffffffffffffff1681525050610f9384611d68565b60008290806001815401808255809150506001900390600052602060002090600702016000909190919091506000820151816000019080519060200190610fdb929190611fc3565b506020820151816001015560408201518160020155606082015181600301908051906020019061100c929190611fc3565b506080820151816004019080519060200190611029929190611fc3565b5060a08201518160050160006101000a81548173ffffffffffffffffffffffffffffffffffffffff021916908373ffffffffffffffffffffffffffffffffffffffff16021790555060c0820151816006015550506001600260008773ffffffffffffffffffffffffffffffffffffffff1673ffffffffffffffffffffffffffffffffffffffff16815260200190815260200160002060006101000a81548160ff021916908315150217905550600160008673ffffffffffffffffffffffffffffffffffffffff1673ffffffffffffffffffffffffffffffffffffffff168152602001908152602001600020829080600181540180825580915050600190039060005260206000209060070201600090919091909150600082015181600001908051906020019061115a929190611fc3565b506020820151816001015560408201518160020155606082015181600301908051906020019061118b929190611fc3565b5060808201518160040190805190602001906111a8929190611fc3565b5060a08201518160050160006101000a81548173ffffffffffffffffffffffffffffffffffffffff021916908373ffffffffffffffffffffffffffffffffffffffff16021790555060c0820151816006015550506001925050509392505050565b611211611f70565b600160008473ffffffffffffffffffffffffffffffffffffffff1673ffffffffffffffffffffffffffffffffffffffff168152602001908152602001600020828154811061126257611261612c6a565b5b90600052602060002090600702016040518060e001604052908160008201805461128b90612bb3565b80601f01602080910402602001604051908101604052809291908181526020018280546112b790612bb3565b80156113045780601f106112d957610100808354040283529160200191611304565b820191906000526020600020905b8154815290600101906020018083116112e757829003601f168201915b50505050508152602001600182015481526020016002820154815260200160038201805461133190612bb3565b80601f016020809104026020016040519081016040528092919081815260200182805461135d90612bb3565b80156113aa5780601f1061137f576101008083540402835291602001916113aa565b820191906000526020600020905b81548152906001019060200180831161138d57829003601f168201915b505050505081526020016004820180546113c390612bb3565b80601f01602080910402602001604051908101604052809291908181526020018280546113ef90612bb3565b801561143c5780601f106114115761010080835404028352916020019161143c565b820191906000526020600020905b81548152906001019060200180831161141f57829003601f168201915b505050505081526020016005820160009054906101000a900473ffffffffffffffffffffffffffffffffffffffff1673ffffffffffffffffffffffffffffffffffffffff1673ffffffffffffffffffffffffffffffffffffffff168152602001600682015481525050905092915050565b6114b5611f70565b600082815481106114c9576114c8612c6a565b5b90600052602060002090600702016040518060e00160405290816000820180546114f290612bb3565b80601f016020809104026020016040519081016040528092919081815260200182805461151e90612bb3565b801561156b5780601f106115405761010080835404028352916020019161156b565b820191906000526020600020905b81548152906001019060200180831161154e57829003601f168201915b50505050508152602001600182015481526020016002820154815260200160038201805461159890612bb3565b80601f01602080910402602001604051908101604052809291908181526020018280546115c490612bb3565b80156116115780601f106115e657610100808354040283529160200191611611565b820191906000526020600020905b8154815290600101906020018083116115f457829003601f168201915b5050505050815260200160048201805461162a90612bb3565b80601f016020809104026020016040519081016040528092919081815260200182805461165690612bb3565b80156116a35780601f10611678576101008083540402835291602001916116a3565b820191906000526020600020905b81548152906001019060200180831161168657829003601f168201915b505050505081526020016005820160009054906101000a900473ffffffffffffffffffffffffffffffffffffffff1673ffffffffffffffffffffffffffffffffffffffff1673ffffffffffffffffffffffffffffffffffffffff1681526020016006820154815250509050919050565b600160008373ffffffffffffffffffffffffffffffffffffffff1673ffffffffffffffffffffffffffffffffffffffff1681526020019081526020016000208190806001815401808255809150506001900390600052602060002090600702016000909190919091506000820151816000019080519060200190611798929190611fc3565b50602082015181600101556040820151816002015560608201518160030190805190602001906117c9929190611fc3565b5060808201518160040190805190602001906117e6929190611fc3565b5060a08201518160050160006101000a81548173ffffffffffffffffffffffffffffffffffffffff021916908373ffffffffffffffffffffffffffffffffffffffff16021790555060c0820151816006015550506001600260008473ffffffffffffffffffffffffffffffffffffffff1673ffffffffffffffffffffffffffffffffffffffff16815260200190815260200160002060006101000a81548160ff0219169083151502179055505050565b60606000805480602002602001604051908101604052809291908181526020016000905b82821015611b1657838290600052602060002090600702016040518060e00160405290816000820180546118ed90612bb3565b80601f016020809104026020016040519081016040528092919081815260200182805461191990612bb3565b80156119665780601f1061193b57610100808354040283529160200191611966565b820191906000526020600020905b81548152906001019060200180831161194957829003601f168201915b50505050508152602001600182015481526020016002820154815260200160038201805461199390612bb3565b80601f01602080910402602001604051908101604052809291908181526020018280546119bf90612bb3565b8015611a0c5780601f106119e157610100808354040283529160200191611a0c565b820191906000526020600020905b8154815290600101906020018083116119ef57829003601f168201915b50505050508152602001600482018054611a2590612bb3565b80601f0160208091040260200160405190810160405280929190818152602001828054611a5190612bb3565b8015611a9e5780601f10611a7357610100808354040283529160200191611a9e565b820191906000526020600020905b815481529060010190602001808311611a8157829003601f168201915b505050505081526020016005820160009054906101000a900473ffffffffffffffffffffffffffffffffffffffff1673ffffffffffffffffffffffffffffffffffffffff1673ffffffffffffffffffffffffffffffffffffffff168152602001600682015481525050815260200190600101906118ba565b50505050905090565b6000600160008473ffffffffffffffffffffffffffffffffffffffff1673ffffffffffffffffffffffffffffffffffffffff168152602001908152602001600020905060008290505b60018280549050611b799190612ddd565b811015611cc95781600182611b8e9190612c14565b81548110611b9f57611b9e612c6a565b5b9060005260206000209060070201828281548110611bc057611bbf612c6a565b5b90600052602060002090600702016000820181600001908054611be290612bb3565b611bed929190612049565b5060018201548160010155600282015481600201556003820181600301908054611c1690612bb3565b611c21929190612049565b506004820181600401908054611c3690612bb3565b611c41929190612049565b506005820160009054906101000a900473ffffffffffffffffffffffffffffffffffffffff168160050160006101000a81548173ffffffffffffffffffffffffffffffffffffffff021916908373ffffffffffffffffffffffffffffffffffffffff160217905550600682015481600601559050508080611cc190612e11565b915050611b68565b5080805480611cdb57611cda612e5a565b5b600190038181906000526020600020906007020160008082016000611d0091906120d6565b60018201600090556002820160009055600382016000611d2091906120d6565b600482016000611d3091906120d6565b6005820160006101000a81549073ffffffffffffffffffffffffffffffffffffffff0219169055600682016000905550509055505050565b60008190505b6001600080549050611d809190612ddd565b811015611ed2576000600182611d969190612c14565b81548110611da757611da6612c6a565b5b906000526020600020906007020160008281548110611dc957611dc8612c6a565b5b90600052602060002090600702016000820181600001908054611deb90612bb3565b611df6929190612049565b5060018201548160010155600282015481600201556003820181600301908054611e1f90612bb3565b611e2a929190612049565b506004820181600401908054611e3f90612bb3565b611e4a929190612049565b506005820160009054906101000a900473ffffffffffffffffffffffffffffffffffffffff168160050160006101000a81548173ffffffffffffffffffffffffffffffffffffffff021916908373ffffffffffffffffffffffffffffffffffffffff160217905550600682015481600601559050508080611eca90612e11565b915050611d6e565b506000805480611ee557611ee4612e5a565b5b600190038181906000526020600020906007020160008082016000611f0a91906120d6565b60018201600090556002820160009055600382016000611f2a91906120d6565b600482016000611f3a91906120d6565b6005820160006101000a81549073ffffffffffffffffffffffffffffffffffffffff021916905560068201600090555050905550565b6040518060e001604052806060815260200160008152602001600081526020016060815260200160608152602001600073ffffffffffffffffffffffffffffffffffffffff168152602001600081525090565b828054611fcf90612bb3565b90600052602060002090601f016020900481019282611ff15760008555612038565b82601f1061200a57805160ff1916838001178555612038565b82800160010185558215612038579182015b8281111561203757825182559160200191906001019061201c565b5b5090506120459190612116565b5090565b82805461205590612bb3565b90600052602060002090601f01602090048101928261207757600085556120c5565b82601f1061208857805485556120c5565b828001600101855582156120c557600052602060002091601f016020900482015b828111156120c45782548255916001019190600101906120a9565b5b5090506120d29190612116565b5090565b5080546120e290612bb3565b6000825580601f106120f45750612113565b601f0160209004906000526020600020908101906121129190612116565b5b50565b5b8082111561212f576000816000905550600101612117565b5090565b6000819050919050565b61214681612133565b82525050565b6000602082019050612161600083018461213d565b92915050565b6000604051905090565b600080fd5b600080fd5b600073ffffffffffffffffffffffffffffffffffffffff82169050919050565b60006121a68261217b565b9050919050565b6121b68161219b565b81146121c157600080fd5b50565b6000813590506121d3816121ad565b92915050565b60006121e48261217b565b9050919050565b6121f4816121d9565b81146121ff57600080fd5b50565b600081359050612211816121eb565b92915050565b61222081612133565b811461222b57600080fd5b50565b60008135905061223d81612217565b92915050565b60008060006060848603121561225c5761225b612171565b5b600061226a868287016121c4565b935050602061227b86828701612202565b925050604061228c8682870161222e565b9150509250925092565b60008115159050919050565b6122ab81612296565b82525050565b60006020820190506122c660008301846122a2565b92915050565b600080604083850312156122e3576122e2612171565b5b60006122f1858286016121c4565b92505060206123028582860161222e565b9150509250929050565b600081519050919050565b600082825260208201905092915050565b60005b8381101561234657808201518184015260208101905061232b565b83811115612355576000848401525b50505050565b6000601f19601f8301169050919050565b60006123778261230c565b6123818185612317565b9350612391818560208601612328565b61239a8161235b565b840191505092915050565b6123ae81612133565b82525050565b6123bd8161219b565b82525050565b600060e08301600083015184820360008601526123e0828261236c565b91505060208301516123f560208601826123a5565b50604083015161240860408601826123a5565b5060608301518482036060860152612420828261236c565b9150506080830151848203608086015261243a828261236c565b91505060a083015161244f60a08601826123b4565b5060c083015161246260c08601826123a5565b508091505092915050565b6000602082019050818103600083015261248781846123c3565b905092915050565b6000602082840312156124a5576124a4612171565b5b60006124b38482850161222e565b91505092915050565b6000602082840312156124d2576124d1612171565b5b60006124e0848285016121c4565b91505092915050565b600081519050919050565b600082825260208201905092915050565b6000819050602082019050919050565b600060e0830160008301518482036000860152612532828261236c565b915050602083015161254760208601826123a5565b50604083015161255a60408601826123a5565b5060608301518482036060860152612572828261236c565b9150506080830151848203608086015261258c828261236c565b91505060a08301516125a160a08601826123b4565b5060c08301516125b460c08601826123a5565b508091505092915050565b60006125cb8383612515565b905092915050565b6000602082019050919050565b60006125eb826124e9565b6125f581856124f4565b93508360208202850161260785612505565b8060005b85811015612643578484038952815161262485826125bf565b945061262f836125d3565b925060208a0199505060018101905061260b565b50829750879550505050505092915050565b6000602082019050818103600083015261266f81846125e0565b905092915050565b600082825260208201905092915050565b60006126938261230c565b61269d8185612677565b93506126ad818560208601612328565b6126b68161235b565b840191505092915050565b6126ca8161219b565b82525050565b600060e08201905081810360008301526126ea818a612688565b90506126f9602083018961213d565b612706604083018861213d565b81810360608301526127188187612688565b9050818103608083015261272c8186612688565b905061273b60a08301856126c1565b61274860c083018461213d565b98975050505050505050565b600080fd5b600080fd5b7f4e487b7100000000000000000000000000000000000000000000000000000000600052604160045260246000fd5b6127968261235b565b810181811067ffffffffffffffff821117156127b5576127b461275e565b5b80604052505050565b60006127c8612167565b90506127d4828261278d565b919050565b600067ffffffffffffffff8211156127f4576127f361275e565b5b6127fd8261235b565b9050602081019050919050565b82818337600083830152505050565b600061282c612827846127d9565b6127be565b90508281526020810184848401111561284857612847612759565b5b61285384828561280a565b509392505050565b600082601f8301126128705761286f612754565b5b8135612880848260208601612819565b91505092915050565b600080fd5b600080fd5b60008083601f8401126128a9576128a8612754565b5b8235905067ffffffffffffffff8111156128c6576128c5612889565b5b6020830191508360018202830111156128e2576128e161288e565b5b9250929050565b60008060008060008060008060c0898b03121561290957612908612171565b5b60006129178b828c016121c4565b985050602089013567ffffffffffffffff81111561293857612937612176565b5b6129448b828c0161285b565b97505060406129558b828c0161222e565b96505060606129668b828c0161222e565b955050608089013567ffffffffffffffff81111561298757612986612176565b5b6129938b828c01612893565b945094505060a089013567ffffffffffffffff8111156129b6576129b5612176565b5b6129c28b828c01612893565b92509250509295985092959890939650565b7f496e76616c696420616464726573730000000000000000000000000000000000600082015250565b6000612a0a600f83612677565b9150612a15826129d4565b602082019050919050565b60006020820190508181036000830152612a39816129fd565b9050919050565b7f20496e76616c6964206164647265737300000000000000000000000000000000600082015250565b6000612a76601083612677565b9150612a8182612a40565b602082019050919050565b60006020820190508181036000830152612aa581612a69565b9050919050565b7f796f752063616e6e6f742073656e6420746f20796f757273656c660000000000600082015250565b6000612ae2601b83612677565b9150612aed82612aac565b602082019050919050565b60006020820190508181036000830152612b1181612ad5565b9050919050565b7f6e6f742061206d656d6265720000000000000000000000000000000000000000600082015250565b6000612b4e600c83612677565b9150612b5982612b18565b602082019050919050565b60006020820190508181036000830152612b7d81612b41565b9050919050565b7f4e487b7100000000000000000000000000000000000000000000000000000000600052602260045260246000fd5b60006002820490506001821680612bcb57607f821691505b60208210811415612bdf57612bde612b84565b5b50919050565b7f4e487b7100000000000000000000000000000000000000000000000000000000600052601160045260246000fd5b6000612c1f82612133565b9150612c2a83612133565b9250827fffffffffffffffffffffffffffffffffffffffffffffffffffffffffffffffff03821115612c5f57612c5e612be5565b5b828201905092915050565b7f4e487b7100000000000000000000000000000000000000000000000000000000600052603260045260246000fd5b7f6e6f2070726f6475637420666f756e6400000000000000000000000000000000600082015250565b6000612ccf601083612677565b9150612cda82612c99565b602082019050919050565b60006020820190508181036000830152612cfe81612cc2565b9050919050565b7f70726f64756374207175616e74697479206e6f74207370656369666965640000600082015250565b6000612d3b601e83612677565b9150612d4682612d05565b602082019050919050565b60006020820190508181036000830152612d6a81612d2e565b9050919050565b7f20796f7520646f6e74206f776e20746869732070726f64756374000000000000600082015250565b6000612da7601a83612677565b9150612db282612d71565b602082019050919050565b60006020820190508181036000830152612dd681612d9a565b9050919050565b6000612de882612133565b9150612df383612133565b925082821015612e0657612e05612be5565b5b828203905092915050565b6000612e1c82612133565b91507fffffffffffffffffffffffffffffffffffffffffffffffffffffffffffffffff821415612e4f57612e4e612be5565b5b600182019050919050565b7f4e487b7100000000000000000000000000000000000000000000000000000000600052603160045260246000fdfea2646970667358221220d2701a77e018fd17ae93d7dee36cb465776dd066c90b610494e8ac9183bed94564736f6c634300080b0033",
  "immutableReferences": {},
  "source": "//SPDX-License-Identifier: MIT\r\npragma solidity ^0.8.0;\r\n\r\nimport './ERC721.sol';\r\nimport './ERC721Enumerable.sol';\r\n\r\ncontract ERC721Connector is ERC721Enumerable{\r\n    \r\n}",
  "sourcePath": "C:\\Users\\olive\\Documents\\MyProjects\\decentralized_agriculture_marketplace\\src\\contracts\\ERC721Connector.sol",
  "compiler": {
    "name": "solc",
    "version": "0.8.11+commit.d7f03943.Emscripten.clang"
  },
  "schemaVersion": "3.4.5",
  "updatedAt": "2022-08-09T09:04:36.747Z",
  "devdoc": {
    "kind": "dev",
    "methods": {},
    "version": 1
  },
  "userdoc": {
    "kind": "user",
    "methods": {},
    "version": 1
  }
}