{
  "contractName": "ERC721Enumerable",
  "abi": [
    {
      "anonymous": false,
      "inputs": [
        {
          "indexed": true,
          "internalType": "address",
          "name": "_from",
          "type": "address"
        },
        {
          "indexed": true,
          "internalType": "address",
          "name": "_to",
          "type": "address"
        },
        {
          "components": [
            {
              "internalType": "string",
              "name": "product_name",
              "type": "string"
            },
            {
              "internalType": "uint256",
              "name": "product_quantity",
              "type": "uint256"
            },
            {
              "internalType": "uint256",
              "name": "price",
              "type": "uint256"
            },
            {
              "internalType": "string",
              "name": "_dateOfPlant",
              "type": "string"
            },
            {
              "internalType": "string",
              "name": "_harvestDate",
              "type": "string"
            },
            {
              "internalType": "address",
              "name": "_owner",
              "type": "address"
            }
          ],
          "indexed": false,
          "internalType": "struct ERC721.Products",
          "name": "product_Transferred",
          "type": "tuple"
        }
      ],
      "name": "Transfer",
      "type": "event"
    },
    {
      "inputs": [
        {
          "internalType": "address",
          "name": "_seller",
          "type": "address"
        },
        {
          "internalType": "uint256",
          "name": "_index",
          "type": "uint256"
        }
      ],
      "name": "AcceptOrder",
      "outputs": [],
      "stateMutability": "view",
      "type": "function"
    },
    {
      "inputs": [
        {
          "internalType": "address",
          "name": "_buyer",
          "type": "address"
        },
        {
          "internalType": "uint256",
          "name": "_index",
          "type": "uint256"
        },
        {
          "internalType": "address",
          "name": "_owner",
          "type": "address"
        }
      ],
      "name": "AddOrder",
      "outputs": [],
      "stateMutability": "nonpayable",
      "type": "function"
    },
    {
      "inputs": [
        {
          "internalType": "address payable",
          "name": "_to",
          "type": "address"
        },
        {
          "internalType": "uint256",
          "name": "value",
          "type": "uint256"
        }
      ],
      "name": "BuyCommodity",
      "outputs": [
        {
          "internalType": "bool",
          "name": "",
          "type": "bool"
        },
        {
          "internalType": "bytes",
          "name": "",
          "type": "bytes"
        }
      ],
      "stateMutability": "payable",
      "type": "function"
    },
    {
      "inputs": [
        {
          "internalType": "uint256",
          "name": "_index",
          "type": "uint256"
        },
        {
          "internalType": "address payable",
          "name": "_seller",
          "type": "address"
        },
        {
          "internalType": "address",
          "name": "_buyer",
          "type": "address"
        }
      ],
      "name": "ProceedCheckOut",
      "outputs": [],
      "stateMutability": "nonpayable",
      "type": "function"
    },
    {
      "inputs": [
        {
          "internalType": "address",
          "name": "_owner",
          "type": "address"
        }
      ],
      "name": "balanceOf",
      "outputs": [
        {
          "components": [
            {
              "internalType": "string",
              "name": "product_name",
              "type": "string"
            },
            {
              "internalType": "uint256",
              "name": "product_quantity",
              "type": "uint256"
            },
            {
              "internalType": "uint256",
              "name": "price",
              "type": "uint256"
            },
            {
              "internalType": "string",
              "name": "_dateOfPlant",
              "type": "string"
            },
            {
              "internalType": "string",
              "name": "_harvestDate",
              "type": "string"
            },
            {
              "internalType": "address",
              "name": "_owner",
              "type": "address"
            }
          ],
          "internalType": "struct ERC721.Products[]",
          "name": "",
          "type": "tuple[]"
        }
      ],
      "stateMutability": "view",
      "type": "function"
    },
    {
      "inputs": [
        {
          "internalType": "address",
          "name": "_buyer",
          "type": "address"
        }
      ],
      "name": "check_orders",
      "outputs": [
        {
          "components": [
            {
              "components": [
                {
                  "internalType": "string",
                  "name": "product_name",
                  "type": "string"
                },
                {
                  "internalType": "uint256",
                  "name": "product_quantity",
                  "type": "uint256"
                },
                {
                  "internalType": "uint256",
                  "name": "price",
                  "type": "uint256"
                },
                {
                  "internalType": "string",
                  "name": "_dateOfPlant",
                  "type": "string"
                },
                {
                  "internalType": "string",
                  "name": "_harvestDate",
                  "type": "string"
                },
                {
                  "internalType": "address",
                  "name": "_owner",
                  "type": "address"
                }
              ],
              "internalType": "struct ERC721.Products",
              "name": "agricultureProducts",
              "type": "tuple"
            },
            {
              "internalType": "address",
              "name": "buyer",
              "type": "address"
            },
            {
              "internalType": "enum ERC721.State",
              "name": "_orderstate",
              "type": "uint8"
            }
          ],
          "internalType": "struct ERC721.OrdersStruct[]",
          "name": "",
          "type": "tuple[]"
        }
      ],
      "stateMutability": "view",
      "type": "function"
    },
    {
      "inputs": [
        {
          "internalType": "address",
          "name": "",
          "type": "address"
        }
      ],
      "name": "isMember",
      "outputs": [
        {
          "internalType": "bool",
          "name": "",
          "type": "bool"
        }
      ],
      "stateMutability": "view",
      "type": "function"
    },
    {
      "inputs": [
        {
          "internalType": "address",
          "name": "_owner",
          "type": "address"
        },
        {
          "internalType": "string",
          "name": "product_name",
          "type": "string"
        },
        {
          "internalType": "uint256",
          "name": "product_quantity",
          "type": "uint256"
        },
        {
          "internalType": "uint256",
          "name": "price",
          "type": "uint256"
        },
        {
          "internalType": "string",
          "name": "_dateOfPlant",
          "type": "string"
        },
        {
          "internalType": "string",
          "name": "_harvestDate",
          "type": "string"
        }
      ],
      "name": "mint",
      "outputs": [],
      "stateMutability": "nonpayable",
      "type": "function"
    },
    {
      "inputs": [
        {
          "internalType": "uint256",
          "name": "",
          "type": "uint256"
        }
      ],
      "name": "product",
      "outputs": [
        {
          "internalType": "string",
          "name": "product_name",
          "type": "string"
        },
        {
          "internalType": "uint256",
          "name": "product_quantity",
          "type": "uint256"
        },
        {
          "internalType": "uint256",
          "name": "price",
          "type": "uint256"
        },
        {
          "internalType": "string",
          "name": "_dateOfPlant",
          "type": "string"
        },
        {
          "internalType": "string",
          "name": "_harvestDate",
          "type": "string"
        },
        {
          "internalType": "address",
          "name": "_owner",
          "type": "address"
        }
      ],
      "stateMutability": "view",
      "type": "function"
    },
    {
      "inputs": [
        {
          "internalType": "uint256",
          "name": "_index",
          "type": "uint256"
        }
      ],
      "name": "testArrayProduct",
      "outputs": [
        {
          "components": [
            {
              "internalType": "string",
              "name": "product_name",
              "type": "string"
            },
            {
              "internalType": "uint256",
              "name": "product_quantity",
              "type": "uint256"
            },
            {
              "internalType": "uint256",
              "name": "price",
              "type": "uint256"
            },
            {
              "internalType": "string",
              "name": "_dateOfPlant",
              "type": "string"
            },
            {
              "internalType": "string",
              "name": "_harvestDate",
              "type": "string"
            },
            {
              "internalType": "address",
              "name": "_owner",
              "type": "address"
            }
          ],
          "internalType": "struct ERC721.Products",
          "name": "",
          "type": "tuple"
        }
      ],
      "stateMutability": "nonpayable",
      "type": "function"
    },
    {
      "inputs": [
        {
          "internalType": "address",
          "name": "_from",
          "type": "address"
        },
        {
          "internalType": "address payable",
          "name": "_to",
          "type": "address"
        },
        {
          "internalType": "uint256",
          "name": "_index",
          "type": "uint256"
        }
      ],
      "name": "transferFrom",
      "outputs": [
        {
          "internalType": "string",
          "name": "",
          "type": "string"
        }
      ],
      "stateMutability": "payable",
      "type": "function"
    },
    {
      "inputs": [],
      "name": "totalSupply",
      "outputs": [
        {
          "internalType": "uint256",
          "name": "",
          "type": "uint256"
        }
      ],
      "stateMutability": "view",
      "type": "function"
    },
    {
      "inputs": [],
      "name": "totalCommodity",
      "outputs": [
        {
          "components": [
            {
              "internalType": "string",
              "name": "product_name",
              "type": "string"
            },
            {
              "internalType": "uint256",
              "name": "product_quantity",
              "type": "uint256"
            },
            {
              "internalType": "uint256",
              "name": "price",
              "type": "uint256"
            },
            {
              "internalType": "string",
              "name": "_dateOfPlant",
              "type": "string"
            },
            {
              "internalType": "string",
              "name": "_harvestDate",
              "type": "string"
            },
            {
              "internalType": "address",
              "name": "_owner",
              "type": "address"
            }
          ],
          "internalType": "struct ERC721.Products[]",
          "name": "",
          "type": "tuple[]"
        }
      ],
      "stateMutability": "view",
      "type": "function"
    },
    {
      "inputs": [
        {
          "internalType": "address",
          "name": "_owner",
          "type": "address"
        },
        {
          "internalType": "uint256",
          "name": "_index",
          "type": "uint256"
        }
      ],
      "name": "tokenOfOwnerByIndex",
      "outputs": [
        {
          "components": [
            {
              "internalType": "string",
              "name": "product_name",
              "type": "string"
            },
            {
              "internalType": "uint256",
              "name": "product_quantity",
              "type": "uint256"
            },
            {
              "internalType": "uint256",
              "name": "price",
              "type": "uint256"
            },
            {
              "internalType": "string",
              "name": "_dateOfPlant",
              "type": "string"
            },
            {
              "internalType": "string",
              "name": "_harvestDate",
              "type": "string"
            },
            {
              "internalType": "address",
              "name": "_owner",
              "type": "address"
            }
          ],
          "internalType": "struct ERC721.Products",
          "name": "",
          "type": "tuple"
        }
      ],
      "stateMutability": "view",
      "type": "function"
    },
    {
      "inputs": [
        {
          "internalType": "uint256",
          "name": "_index",
          "type": "uint256"
        }
      ],
      "name": "tokenByIndex",
      "outputs": [
        {
          "components": [
            {
              "internalType": "string",
              "name": "product_name",
              "type": "string"
            },
            {
              "internalType": "uint256",
              "name": "product_quantity",
              "type": "uint256"
            },
            {
              "internalType": "uint256",
              "name": "price",
              "type": "uint256"
            },
            {
              "internalType": "string",
              "name": "_dateOfPlant",
              "type": "string"
            },
            {
              "internalType": "string",
              "name": "_harvestDate",
              "type": "string"
            },
            {
              "internalType": "address",
              "name": "_owner",
              "type": "address"
            }
          ],
          "internalType": "struct ERC721.Products",
          "name": "",
          "type": "tuple"
        }
      ],
      "stateMutability": "view",
      "type": "function"
    }
  ],
  "bytecode": "0x608060405234801561001057600080fd5b50614304806100206000396000f3fe6080604052600436106100e85760003560e01c806370a082311161008a578063a00fea1f11610059578063a00fea1f1461032a578063a230c52414610355578063c53da9fa14610392578063cadc3ec0146103bb576100e8565b806370a0823114610259578063780bd3f1146102965780639129b4ad146102d85780639527192f14610301576100e8565b80634f6ccce7116100c65780634f6ccce7146101855780635ecdf09e146101c2578063618a7a62146101eb578063659be7ae14610228576100e8565b806318160ddd146100ed57806323b872dd146101185780632f745c5914610148575b600080fd5b3480156100f957600080fd5b506101026103f8565b60405161010f919061331f565b60405180910390f35b610132600480360381019061012d9190613416565b610407565b60405161013f9190613502565b60405180910390f35b34801561015457600080fd5b5061016f600480360381019061016a9190613524565b610596565b60405161017c9190613663565b60405180910390f35b34801561019157600080fd5b506101ac60048036038101906101a79190613685565b6105b0565b6040516101b99190613663565b60405180910390f35b3480156101ce57600080fd5b506101e960048036038101906101e491906136b2565b6105c8565b005b3480156101f757600080fd5b50610212600480360381019061020d9190613685565b610990565b60405161021f9190613663565b60405180910390f35b610242600480360381019061023d9190613705565b610c49565b6040516102509291906137b5565b60405180910390f35b34801561026557600080fd5b50610280600480360381019061027b91906137e5565b610cca565b60405161028d919061396b565b60405180910390f35b3480156102a257600080fd5b506102bd60048036038101906102b89190613685565b610fc8565b6040516102cf9695949392919061399c565b60405180910390f35b3480156102e457600080fd5b506102ff60048036038101906102fa9190613ba7565b6111cc565b005b34801561030d57600080fd5b5061032860048036038101906103239190613524565b611390565b005b34801561033657600080fd5b5061033f61172e565b60405161034c919061396b565b60405180910390f35b34801561036157600080fd5b5061037c600480360381019061037791906137e5565b61173d565b6040516103899190613c92565b60405180910390f35b34801561039e57600080fd5b506103b960048036038101906103b49190613cad565b61175d565b005b3480156103c757600080fd5b506103e260048036038101906103dd91906137e5565b611b9c565b6040516103ef9190613e89565b60405180910390f35b6000610402611eff565b905090565b6060600073ffffffffffffffffffffffffffffffffffffffff168473ffffffffffffffffffffffffffffffffffffffff161415610479576040517f08c379a000000000000000000000000000000000000000000000000000000000815260040161047090613ef7565b60405180910390fd5b600073ffffffffffffffffffffffffffffffffffffffff168373ffffffffffffffffffffffffffffffffffffffff1614156104e9576040517f08c379a00000000000000000000000000000000000000000000000000000000081526004016104e090613f63565b60405180910390fd5b60011515600460008673ffffffffffffffffffffffffffffffffffffffff1673ffffffffffffffffffffffffffffffffffffffff16815260200190815260200160002060009054906101000a900460ff1615151461057c576040517f08c379a000000000000000000000000000000000000000000000000000000000815260040161057390613fcf565b60405180910390fd5b6000610589858585611f0c565b9050809150509392505050565b61059e61314a565b6105a8838361242f565b905092915050565b6105b861314a565b6105c1826126c9565b9050919050565b6000600160008473ffffffffffffffffffffffffffffffffffffffff1673ffffffffffffffffffffffffffffffffffffffff168152602001908152602001600020848154811061061b5761061a613fef565b5b9060005260206000209060070201604051806060016040529081600082016040518060c00160405290816000820180546106549061404d565b80601f01602080910402602001604051908101604052809291908181526020018280546106809061404d565b80156106cd5780601f106106a2576101008083540402835291602001916106cd565b820191906000526020600020905b8154815290600101906020018083116106b057829003601f168201915b5050505050815260200160018201548152602001600282015481526020016003820180546106fa9061404d565b80601f01602080910402602001604051908101604052809291908181526020018280546107269061404d565b80156107735780601f1061074857610100808354040283529160200191610773565b820191906000526020600020905b81548152906001019060200180831161075657829003601f168201915b5050505050815260200160048201805461078c9061404d565b80601f01602080910402602001604051908101604052809291908181526020018280546107b89061404d565b80156108055780601f106107da57610100808354040283529160200191610805565b820191906000526020600020905b8154815290600101906020018083116107e857829003601f168201915b505050505081526020016005820160009054906101000a900473ffffffffffffffffffffffffffffffffffffffff1673ffffffffffffffffffffffffffffffffffffffff1673ffffffffffffffffffffffffffffffffffffffff168152505081526020016006820160009054906101000a900473ffffffffffffffffffffffffffffffffffffffff1673ffffffffffffffffffffffffffffffffffffffff1673ffffffffffffffffffffffffffffffffffffffff1681526020016006820160149054906101000a900460ff1660048111156108e3576108e2613d2c565b5b60048111156108f5576108f4613d2c565b5b8152505090506002600481111561090f5761090e613d2c565b5b8160400151600481111561092657610925613d2c565b5b1461093057600080fd5b61094283826000015160400151610c49565b505061094f828486610407565b5060038160400190600481111561096957610968613d2c565b5b9081600481111561097d5761097c613d2c565b5b8152505061098a84612925565b50505050565b61099861314a565b6000600283815481106109ae576109ad613fef565b5b90600052602060002090600602019050731c9264bd829884899dc15397bec23113bcec39828160050160006101000a81548173ffffffffffffffffffffffffffffffffffffffff021916908373ffffffffffffffffffffffffffffffffffffffff160217905550806040518060c0016040529081600082018054610a319061404d565b80601f0160208091040260200160405190810160405280929190818152602001828054610a5d9061404d565b8015610aaa5780601f10610a7f57610100808354040283529160200191610aaa565b820191906000526020600020905b815481529060010190602001808311610a8d57829003601f168201915b505050505081526020016001820154815260200160028201548152602001600382018054610ad79061404d565b80601f0160208091040260200160405190810160405280929190818152602001828054610b039061404d565b8015610b505780601f10610b2557610100808354040283529160200191610b50565b820191906000526020600020905b815481529060010190602001808311610b3357829003601f168201915b50505050508152602001600482018054610b699061404d565b80601f0160208091040260200160405190810160405280929190818152602001828054610b959061404d565b8015610be25780601f10610bb757610100808354040283529160200191610be2565b820191906000526020600020905b815481529060010190602001808311610bc557829003601f168201915b505050505081526020016005820160009054906101000a900473ffffffffffffffffffffffffffffffffffffffff1673ffffffffffffffffffffffffffffffffffffffff1673ffffffffffffffffffffffffffffffffffffffff1681525050915050919050565b600060606000808573ffffffffffffffffffffffffffffffffffffffff1685604051610c74906140b0565b60006040518083038185875af1925050503d8060008114610cb1576040519150601f19603f3d011682016040523d82523d6000602084013e610cb6565b606091505b509150915081819350935050509250929050565b6060600073ffffffffffffffffffffffffffffffffffffffff168273ffffffffffffffffffffffffffffffffffffffff161415610d0657600080fd5b6000600360008473ffffffffffffffffffffffffffffffffffffffff1673ffffffffffffffffffffffffffffffffffffffff168152602001908152602001600020905080805480602002602001604051908101604052809291908181526020016000905b82821015610fbc57838290600052602060002090600602016040518060c0016040529081600082018054610d9d9061404d565b80601f0160208091040260200160405190810160405280929190818152602001828054610dc99061404d565b8015610e165780601f10610deb57610100808354040283529160200191610e16565b820191906000526020600020905b815481529060010190602001808311610df957829003601f168201915b505050505081526020016001820154815260200160028201548152602001600382018054610e439061404d565b80601f0160208091040260200160405190810160405280929190818152602001828054610e6f9061404d565b8015610ebc5780601f10610e9157610100808354040283529160200191610ebc565b820191906000526020600020905b815481529060010190602001808311610e9f57829003601f168201915b50505050508152602001600482018054610ed59061404d565b80601f0160208091040260200160405190810160405280929190818152602001828054610f019061404d565b8015610f4e5780601f10610f2357610100808354040283529160200191610f4e565b820191906000526020600020905b815481529060010190602001808311610f3157829003601f168201915b505050505081526020016005820160009054906101000a900473ffffffffffffffffffffffffffffffffffffffff1673ffffffffffffffffffffffffffffffffffffffff1673ffffffffffffffffffffffffffffffffffffffff168152505081526020019060010190610d6a565b50505050915050919050565b60028181548110610fd857600080fd5b9060005260206000209060060201600091509050806000018054610ffb9061404d565b80601f01602080910402602001604051908101604052809291908181526020018280546110279061404d565b80156110745780601f1061104957610100808354040283529160200191611074565b820191906000526020600020905b81548152906001019060200180831161105757829003601f168201915b5050505050908060010154908060020154908060030180546110959061404d565b80601f01602080910402602001604051908101604052809291908181526020018280546110c19061404d565b801561110e5780601f106110e35761010080835404028352916020019161110e565b820191906000526020600020905b8154815290600101906020018083116110f157829003601f168201915b5050505050908060040180546111239061404d565b80601f016020809104026020016040519081016040528092919081815260200182805461114f9061404d565b801561119c5780601f106111715761010080835404028352916020019161119c565b820191906000526020600020905b81548152906001019060200180831161117f57829003601f168201915b5050505050908060050160009054906101000a900473ffffffffffffffffffffffffffffffffffffffff16905086565b60006040518060c0016040528089815260200188815260200187815260200186868080601f016020809104026020016040519081016040528093929190818152602001838380828437600081840152601f19601f82011690508083019250505050505050815260200184848080601f016020809104026020016040519081016040528093929190818152602001838380828437600081840152601f19601f8201169050808301925050505050505081526020018a73ffffffffffffffffffffffffffffffffffffffff168152509050600281908060018154018082558091505060019003906000526020600020906006020160009091909190915060008201518160000190805190602001906112e3929190613196565b5060208201518160010155604082015181600201556060820151816003019080519060200190611314929190613196565b506080820151816004019080519060200190611331929190613196565b5060a08201518160050160006101000a81548173ffffffffffffffffffffffffffffffffffffffff021916908373ffffffffffffffffffffffffffffffffffffffff16021790555050506113858982612b1b565b505050505050505050565b6000600160008473ffffffffffffffffffffffffffffffffffffffff1673ffffffffffffffffffffffffffffffffffffffff16815260200190815260200160002082815481106113e3576113e2613fef565b5b9060005260206000209060070201604051806060016040529081600082016040518060c001604052908160008201805461141c9061404d565b80601f01602080910402602001604051908101604052809291908181526020018280546114489061404d565b80156114955780601f1061146a57610100808354040283529160200191611495565b820191906000526020600020905b81548152906001019060200180831161147857829003601f168201915b5050505050815260200160018201548152602001600282015481526020016003820180546114c29061404d565b80601f01602080910402602001604051908101604052809291908181526020018280546114ee9061404d565b801561153b5780601f106115105761010080835404028352916020019161153b565b820191906000526020600020905b81548152906001019060200180831161151e57829003601f168201915b505050505081526020016004820180546115549061404d565b80601f01602080910402602001604051908101604052809291908181526020018280546115809061404d565b80156115cd5780601f106115a2576101008083540402835291602001916115cd565b820191906000526020600020905b8154815290600101906020018083116115b057829003601f168201915b505050505081526020016005820160009054906101000a900473ffffffffffffffffffffffffffffffffffffffff1673ffffffffffffffffffffffffffffffffffffffff1673ffffffffffffffffffffffffffffffffffffffff168152505081526020016006820160009054906101000a900473ffffffffffffffffffffffffffffffffffffffff1673ffffffffffffffffffffffffffffffffffffffff1673ffffffffffffffffffffffffffffffffffffffff1681526020016006820160149054906101000a900460ff1660048111156116ab576116aa613d2c565b5b60048111156116bd576116bc613d2c565b5b815250509050600160048111156116d7576116d6613d2c565b5b816040015160048111156116ee576116ed613d2c565b5b146116f857600080fd5b60028160400190600481111561171157611710613d2c565b5b9081600481111561172557611724613d2c565b5b81525050505050565b6060611738612c94565b905090565b60046020528060005260406000206000915054906101000a900460ff1681565b6000600360008373ffffffffffffffffffffffffffffffffffffffff1673ffffffffffffffffffffffffffffffffffffffff16815260200190815260200160002083815481106117b0576117af613fef565b5b90600052602060002090600602016040518060c00160405290816000820180546117d99061404d565b80601f01602080910402602001604051908101604052809291908181526020018280546118059061404d565b80156118525780601f1061182757610100808354040283529160200191611852565b820191906000526020600020905b81548152906001019060200180831161183557829003601f168201915b50505050508152602001600182015481526020016002820154815260200160038201805461187f9061404d565b80601f01602080910402602001604051908101604052809291908181526020018280546118ab9061404d565b80156118f85780601f106118cd576101008083540402835291602001916118f8565b820191906000526020600020905b8154815290600101906020018083116118db57829003601f168201915b505050505081526020016004820180546119119061404d565b80601f016020809104026020016040519081016040528092919081815260200182805461193d9061404d565b801561198a5780601f1061195f5761010080835404028352916020019161198a565b820191906000526020600020905b81548152906001019060200180831161196d57829003601f168201915b505050505081526020016005820160009054906101000a900473ffffffffffffffffffffffffffffffffffffffff1673ffffffffffffffffffffffffffffffffffffffff1673ffffffffffffffffffffffffffffffffffffffff16815250509050600060405180606001604052808381526020018673ffffffffffffffffffffffffffffffffffffffff16815260200160016004811115611a2e57611a2d613d2c565b5b815250905060008190806001815401808255809150506001900390600052602060002090600702016000909190919091506000820151816000016000820151816000019080519060200190611a84929190613196565b5060208201518160010155604082015181600201556060820151816003019080519060200190611ab5929190613196565b506080820151816004019080519060200190611ad2929190613196565b5060a08201518160050160006101000a81548173ffffffffffffffffffffffffffffffffffffffff021916908373ffffffffffffffffffffffffffffffffffffffff160217905550505060208201518160060160006101000a81548173ffffffffffffffffffffffffffffffffffffffff021916908373ffffffffffffffffffffffffffffffffffffffff16021790555060408201518160060160146101000a81548160ff02191690836004811115611b8e57611b8d613d2c565b5b021790555050505050505050565b6060600160008373ffffffffffffffffffffffffffffffffffffffff1673ffffffffffffffffffffffffffffffffffffffff168152602001908152602001600020805480602002602001604051908101604052809291908181526020016000905b82821015611ef45783829060005260206000209060070201604051806060016040529081600082016040518060c0016040529081600082018054611c409061404d565b80601f0160208091040260200160405190810160405280929190818152602001828054611c6c9061404d565b8015611cb95780601f10611c8e57610100808354040283529160200191611cb9565b820191906000526020600020905b815481529060010190602001808311611c9c57829003601f168201915b505050505081526020016001820154815260200160028201548152602001600382018054611ce69061404d565b80601f0160208091040260200160405190810160405280929190818152602001828054611d129061404d565b8015611d5f5780601f10611d3457610100808354040283529160200191611d5f565b820191906000526020600020905b815481529060010190602001808311611d4257829003601f168201915b50505050508152602001600482018054611d789061404d565b80601f0160208091040260200160405190810160405280929190818152602001828054611da49061404d565b8015611df15780601f10611dc657610100808354040283529160200191611df1565b820191906000526020600020905b815481529060010190602001808311611dd457829003601f168201915b505050505081526020016005820160009054906101000a900473ffffffffffffffffffffffffffffffffffffffff1673ffffffffffffffffffffffffffffffffffffffff1673ffffffffffffffffffffffffffffffffffffffff168152505081526020016006820160009054906101000a900473ffffffffffffffffffffffffffffffffffffffff1673ffffffffffffffffffffffffffffffffffffffff1673ffffffffffffffffffffffffffffffffffffffff1681526020016006820160149054906101000a900460ff166004811115611ecf57611ece613d2c565b5b6004811115611ee157611ee0613d2c565b5b8152505081526020019060010190611bfd565b505050509050919050565b6000600280549050905090565b60606000600360008673ffffffffffffffffffffffffffffffffffffffff1673ffffffffffffffffffffffffffffffffffffffff1681526020019081526020016000208381548110611f6157611f60613fef565b5b90600052602060002090600602016040518060c0016040529081600082018054611f8a9061404d565b80601f0160208091040260200160405190810160405280929190818152602001828054611fb69061404d565b80156120035780601f10611fd857610100808354040283529160200191612003565b820191906000526020600020905b815481529060010190602001808311611fe657829003601f168201915b5050505050815260200160018201548152602001600282015481526020016003820180546120309061404d565b80601f016020809104026020016040519081016040528092919081815260200182805461205c9061404d565b80156120a95780601f1061207e576101008083540402835291602001916120a9565b820191906000526020600020905b81548152906001019060200180831161208c57829003601f168201915b505050505081526020016004820180546120c29061404d565b80601f01602080910402602001604051908101604052809291908181526020018280546120ee9061404d565b801561213b5780601f106121105761010080835404028352916020019161213b565b820191906000526020600020905b81548152906001019060200180831161211e57829003601f168201915b505050505081526020016005820160009054906101000a900473ffffffffffffffffffffffffffffffffffffffff1673ffffffffffffffffffffffffffffffffffffffff1673ffffffffffffffffffffffffffffffffffffffff168152505090506000816040015114156121e4576040517f08c379a00000000000000000000000000000000000000000000000000000000081526004016121db90614111565b60405180910390fd5b60008160200151141561222c576040517f08c379a00000000000000000000000000000000000000000000000000000000081526004016122239061417d565b60405180910390fd5b6122368584612f13565b838160a0019073ffffffffffffffffffffffffffffffffffffffff16908173ffffffffffffffffffffffffffffffffffffffff1681525050836002848154811061228357612282613fef565b5b906000526020600020906006020160050160006101000a81548173ffffffffffffffffffffffffffffffffffffffff021916908373ffffffffffffffffffffffffffffffffffffffff160217905550600360008573ffffffffffffffffffffffffffffffffffffffff1673ffffffffffffffffffffffffffffffffffffffff1681526020019081526020016000208190806001815401808255809150506001900390600052602060002090600602016000909190919091506000820151816000019080519060200190612357929190613196565b5060208201518160010155604082015181600201556060820151816003019080519060200190612388929190613196565b5060808201518160040190805190602001906123a5929190613196565b5060a08201518160050160006101000a81548173ffffffffffffffffffffffffffffffffffffffff021916908373ffffffffffffffffffffffffffffffffffffffff16021790555050506040518060400160405280601481526020017f5472616e73666572207375636365737366756c6c0000000000000000000000008152509150509392505050565b61243761314a565b600360008473ffffffffffffffffffffffffffffffffffffffff1673ffffffffffffffffffffffffffffffffffffffff168152602001908152602001600020828154811061248857612487613fef565b5b90600052602060002090600602016040518060c00160405290816000820180546124b19061404d565b80601f01602080910402602001604051908101604052809291908181526020018280546124dd9061404d565b801561252a5780601f106124ff5761010080835404028352916020019161252a565b820191906000526020600020905b81548152906001019060200180831161250d57829003601f168201915b5050505050815260200160018201548152602001600282015481526020016003820180546125579061404d565b80601f01602080910402602001604051908101604052809291908181526020018280546125839061404d565b80156125d05780601f106125a5576101008083540402835291602001916125d0565b820191906000526020600020905b8154815290600101906020018083116125b357829003601f168201915b505050505081526020016004820180546125e99061404d565b80601f01602080910402602001604051908101604052809291908181526020018280546126159061404d565b80156126625780601f1061263757610100808354040283529160200191612662565b820191906000526020600020905b81548152906001019060200180831161264557829003601f168201915b505050505081526020016005820160009054906101000a900473ffffffffffffffffffffffffffffffffffffffff1673ffffffffffffffffffffffffffffffffffffffff1673ffffffffffffffffffffffffffffffffffffffff1681525050905092915050565b6126d161314a565b600282815481106126e5576126e4613fef565b5b90600052602060002090600602016040518060c001604052908160008201805461270e9061404d565b80601f016020809104026020016040519081016040528092919081815260200182805461273a9061404d565b80156127875780601f1061275c57610100808354040283529160200191612787565b820191906000526020600020905b81548152906001019060200180831161276a57829003601f168201915b5050505050815260200160018201548152602001600282015481526020016003820180546127b49061404d565b80601f01602080910402602001604051908101604052809291908181526020018280546127e09061404d565b801561282d5780601f106128025761010080835404028352916020019161282d565b820191906000526020600020905b81548152906001019060200180831161281057829003601f168201915b505050505081526020016004820180546128469061404d565b80601f01602080910402602001604051908101604052809291908181526020018280546128729061404d565b80156128bf5780601f10612894576101008083540402835291602001916128bf565b820191906000526020600020905b8154815290600101906020018083116128a257829003601f168201915b505050505081526020016005820160009054906101000a900473ffffffffffffffffffffffffffffffffffffffff1673ffffffffffffffffffffffffffffffffffffffff1673ffffffffffffffffffffffffffffffffffffffff16815250509050919050565b60008190505b600160028054905061293d91906141cc565b811015612a855760026001826129539190614200565b8154811061296457612963613fef565b5b90600052602060002090600602016002828154811061298657612985613fef565b5b906000526020600020906006020160008201816000019080546129a89061404d565b6129b392919061321c565b50600182015481600101556002820154816002015560038201816003019080546129dc9061404d565b6129e792919061321c565b5060048201816004019080546129fc9061404d565b612a0792919061321c565b506005820160009054906101000a900473ffffffffffffffffffffffffffffffffffffffff168160050160006101000a81548173ffffffffffffffffffffffffffffffffffffffff021916908373ffffffffffffffffffffffffffffffffffffffff1602179055509050508080612a7d90614256565b91505061292b565b506002805480612a9857612a9761429f565b5b600190038181906000526020600020906006020160008082016000612abd91906132a9565b60018201600090556002820160009055600382016000612add91906132a9565b600482016000612aed91906132a9565b6005820160006101000a81549073ffffffffffffffffffffffffffffffffffffffff02191690555050905550565b600360008373ffffffffffffffffffffffffffffffffffffffff1673ffffffffffffffffffffffffffffffffffffffff1681526020019081526020016000208190806001815401808255809150506001900390600052602060002090600602016000909190919091506000820151816000019080519060200190612ba0929190613196565b5060208201518160010155604082015181600201556060820151816003019080519060200190612bd1929190613196565b506080820151816004019080519060200190612bee929190613196565b5060a08201518160050160006101000a81548173ffffffffffffffffffffffffffffffffffffffff021916908373ffffffffffffffffffffffffffffffffffffffff16021790555050506001600460008473ffffffffffffffffffffffffffffffffffffffff1673ffffffffffffffffffffffffffffffffffffffff16815260200190815260200160002060006101000a81548160ff0219169083151502179055505050565b60606002805480602002602001604051908101604052809291908181526020016000905b82821015612f0a57838290600052602060002090600602016040518060c0016040529081600082018054612ceb9061404d565b80601f0160208091040260200160405190810160405280929190818152602001828054612d179061404d565b8015612d645780601f10612d3957610100808354040283529160200191612d64565b820191906000526020600020905b815481529060010190602001808311612d4757829003601f168201915b505050505081526020016001820154815260200160028201548152602001600382018054612d919061404d565b80601f0160208091040260200160405190810160405280929190818152602001828054612dbd9061404d565b8015612e0a5780601f10612ddf57610100808354040283529160200191612e0a565b820191906000526020600020905b815481529060010190602001808311612ded57829003601f168201915b50505050508152602001600482018054612e239061404d565b80601f0160208091040260200160405190810160405280929190818152602001828054612e4f9061404d565b8015612e9c5780601f10612e7157610100808354040283529160200191612e9c565b820191906000526020600020905b815481529060010190602001808311612e7f57829003601f168201915b505050505081526020016005820160009054906101000a900473ffffffffffffffffffffffffffffffffffffffff1673ffffffffffffffffffffffffffffffffffffffff1673ffffffffffffffffffffffffffffffffffffffff168152505081526020019060010190612cb8565b50505050905090565b6000600360008473ffffffffffffffffffffffffffffffffffffffff1673ffffffffffffffffffffffffffffffffffffffff168152602001908152602001600020905060008290505b60018280549050612f6d91906141cc565b8110156130b35781600182612f829190614200565b81548110612f9357612f92613fef565b5b9060005260206000209060060201828281548110612fb457612fb3613fef565b5b90600052602060002090600602016000820181600001908054612fd69061404d565b612fe192919061321c565b506001820154816001015560028201548160020155600382018160030190805461300a9061404d565b61301592919061321c565b50600482018160040190805461302a9061404d565b61303592919061321c565b506005820160009054906101000a900473ffffffffffffffffffffffffffffffffffffffff168160050160006101000a81548173ffffffffffffffffffffffffffffffffffffffff021916908373ffffffffffffffffffffffffffffffffffffffff16021790555090505080806130ab90614256565b915050612f5c565b50808054806130c5576130c461429f565b5b6001900381819060005260206000209060060201600080820160006130ea91906132a9565b6001820160009055600282016000905560038201600061310a91906132a9565b60048201600061311a91906132a9565b6005820160006101000a81549073ffffffffffffffffffffffffffffffffffffffff021916905550509055505050565b6040518060c001604052806060815260200160008152602001600081526020016060815260200160608152602001600073ffffffffffffffffffffffffffffffffffffffff1681525090565b8280546131a29061404d565b90600052602060002090601f0160209004810192826131c4576000855561320b565b82601f106131dd57805160ff191683800117855561320b565b8280016001018555821561320b579182015b8281111561320a5782518255916020019190600101906131ef565b5b50905061321891906132e9565b5090565b8280546132289061404d565b90600052602060002090601f01602090048101928261324a5760008555613298565b82601f1061325b5780548555613298565b8280016001018555821561329857600052602060002091601f016020900482015b8281111561329757825482559160010191906001019061327c565b5b5090506132a591906132e9565b5090565b5080546132b59061404d565b6000825580601f106132c757506132e6565b601f0160209004906000526020600020908101906132e591906132e9565b5b50565b5b808211156133025760008160009055506001016132ea565b5090565b6000819050919050565b61331981613306565b82525050565b60006020820190506133346000830184613310565b92915050565b6000604051905090565b600080fd5b600080fd5b600073ffffffffffffffffffffffffffffffffffffffff82169050919050565b60006133798261334e565b9050919050565b6133898161336e565b811461339457600080fd5b50565b6000813590506133a681613380565b92915050565b60006133b78261334e565b9050919050565b6133c7816133ac565b81146133d257600080fd5b50565b6000813590506133e4816133be565b92915050565b6133f381613306565b81146133fe57600080fd5b50565b600081359050613410816133ea565b92915050565b60008060006060848603121561342f5761342e613344565b5b600061343d86828701613397565b935050602061344e868287016133d5565b925050604061345f86828701613401565b9150509250925092565b600081519050919050565b600082825260208201905092915050565b60005b838110156134a3578082015181840152602081019050613488565b838111156134b2576000848401525b50505050565b6000601f19601f8301169050919050565b60006134d482613469565b6134de8185613474565b93506134ee818560208601613485565b6134f7816134b8565b840191505092915050565b6000602082019050818103600083015261351c81846134c9565b905092915050565b6000806040838503121561353b5761353a613344565b5b600061354985828601613397565b925050602061355a85828601613401565b9150509250929050565b600082825260208201905092915050565b600061358082613469565b61358a8185613564565b935061359a818560208601613485565b6135a3816134b8565b840191505092915050565b6135b781613306565b82525050565b6135c68161336e565b82525050565b600060c08301600083015184820360008601526135e98282613575565b91505060208301516135fe60208601826135ae565b50604083015161361160408601826135ae565b50606083015184820360608601526136298282613575565b915050608083015184820360808601526136438282613575565b91505060a083015161365860a08601826135bd565b508091505092915050565b6000602082019050818103600083015261367d81846135cc565b905092915050565b60006020828403121561369b5761369a613344565b5b60006136a984828501613401565b91505092915050565b6000806000606084860312156136cb576136ca613344565b5b60006136d986828701613401565b93505060206136ea868287016133d5565b92505060406136fb86828701613397565b9150509250925092565b6000806040838503121561371c5761371b613344565b5b600061372a858286016133d5565b925050602061373b85828601613401565b9150509250929050565b60008115159050919050565b61375a81613745565b82525050565b600081519050919050565b600082825260208201905092915050565b600061378782613760565b613791818561376b565b93506137a1818560208601613485565b6137aa816134b8565b840191505092915050565b60006040820190506137ca6000830185613751565b81810360208301526137dc818461377c565b90509392505050565b6000602082840312156137fb576137fa613344565b5b600061380984828501613397565b91505092915050565b600081519050919050565b600082825260208201905092915050565b6000819050602082019050919050565b600060c083016000830151848203600086015261385b8282613575565b915050602083015161387060208601826135ae565b50604083015161388360408601826135ae565b506060830151848203606086015261389b8282613575565b915050608083015184820360808601526138b58282613575565b91505060a08301516138ca60a08601826135bd565b508091505092915050565b60006138e1838361383e565b905092915050565b6000602082019050919050565b600061390182613812565b61390b818561381d565b93508360208202850161391d8561382e565b8060005b85811015613959578484038952815161393a85826138d5565b9450613945836138e9565b925060208a01995050600181019050613921565b50829750879550505050505092915050565b6000602082019050818103600083015261398581846138f6565b905092915050565b6139968161336e565b82525050565b600060c08201905081810360008301526139b681896134c9565b90506139c56020830188613310565b6139d26040830187613310565b81810360608301526139e481866134c9565b905081810360808301526139f881856134c9565b9050613a0760a083018461398d565b979650505050505050565b600080fd5b600080fd5b7f4e487b7100000000000000000000000000000000000000000000000000000000600052604160045260246000fd5b613a54826134b8565b810181811067ffffffffffffffff82111715613a7357613a72613a1c565b5b80604052505050565b6000613a8661333a565b9050613a928282613a4b565b919050565b600067ffffffffffffffff821115613ab257613ab1613a1c565b5b613abb826134b8565b9050602081019050919050565b82818337600083830152505050565b6000613aea613ae584613a97565b613a7c565b905082815260208101848484011115613b0657613b05613a17565b5b613b11848285613ac8565b509392505050565b600082601f830112613b2e57613b2d613a12565b5b8135613b3e848260208601613ad7565b91505092915050565b600080fd5b600080fd5b60008083601f840112613b6757613b66613a12565b5b8235905067ffffffffffffffff811115613b8457613b83613b47565b5b602083019150836001820283011115613ba057613b9f613b4c565b5b9250929050565b60008060008060008060008060c0898b031215613bc757613bc6613344565b5b6000613bd58b828c01613397565b985050602089013567ffffffffffffffff811115613bf657613bf5613349565b5b613c028b828c01613b19565b9750506040613c138b828c01613401565b9650506060613c248b828c01613401565b955050608089013567ffffffffffffffff811115613c4557613c44613349565b5b613c518b828c01613b51565b945094505060a089013567ffffffffffffffff811115613c7457613c73613349565b5b613c808b828c01613b51565b92509250509295985092959890939650565b6000602082019050613ca76000830184613751565b92915050565b600080600060608486031215613cc657613cc5613344565b5b6000613cd486828701613397565b9350506020613ce586828701613401565b9250506040613cf686828701613397565b9150509250925092565b600081519050919050565b600082825260208201905092915050565b6000819050602082019050919050565b7f4e487b7100000000000000000000000000000000000000000000000000000000600052602160045260246000fd5b60058110613d6c57613d6b613d2c565b5b50565b6000819050613d7d82613d5b565b919050565b6000613d8d82613d6f565b9050919050565b613d9d81613d82565b82525050565b60006060830160008301518482036000860152613dc0828261383e565b9150506020830151613dd560208601826135bd565b506040830151613de86040860182613d94565b508091505092915050565b6000613dff8383613da3565b905092915050565b6000602082019050919050565b6000613e1f82613d00565b613e298185613d0b565b935083602082028501613e3b85613d1c565b8060005b85811015613e775784840389528151613e588582613df3565b9450613e6383613e07565b925060208a01995050600181019050613e3f565b50829750879550505050505092915050565b60006020820190508181036000830152613ea38184613e14565b905092915050565b7f496e76616c696420616464726573730000000000000000000000000000000000600082015250565b6000613ee1600f83613474565b9150613eec82613eab565b602082019050919050565b60006020820190508181036000830152613f1081613ed4565b9050919050565b7f20496e76616c6964206164647265737300000000000000000000000000000000600082015250565b6000613f4d601083613474565b9150613f5882613f17565b602082019050919050565b60006020820190508181036000830152613f7c81613f40565b9050919050565b7f6e6f742061206d656d6265720000000000000000000000000000000000000000600082015250565b6000613fb9600c83613474565b9150613fc482613f83565b602082019050919050565b60006020820190508181036000830152613fe881613fac565b9050919050565b7f4e487b7100000000000000000000000000000000000000000000000000000000600052603260045260246000fd5b7f4e487b7100000000000000000000000000000000000000000000000000000000600052602260045260246000fd5b6000600282049050600182168061406557607f821691505b602082108114156140795761407861401e565b5b50919050565b600081905092915050565b50565b600061409a60008361407f565b91506140a58261408a565b600082019050919050565b60006140bb8261408d565b9150819050919050565b7f6e6f2070726f6475637420666f756e6400000000000000000000000000000000600082015250565b60006140fb601083613474565b9150614106826140c5565b602082019050919050565b6000602082019050818103600083015261412a816140ee565b9050919050565b7f70726f64756374207175616e74697479206e6f74207370656369666965640000600082015250565b6000614167601e83613474565b915061417282614131565b602082019050919050565b600060208201905081810360008301526141968161415a565b9050919050565b7f4e487b7100000000000000000000000000000000000000000000000000000000600052601160045260246000fd5b60006141d782613306565b91506141e283613306565b9250828210156141f5576141f461419d565b5b828203905092915050565b600061420b82613306565b915061421683613306565b9250827fffffffffffffffffffffffffffffffffffffffffffffffffffffffffffffffff0382111561424b5761424a61419d565b5b828201905092915050565b600061426182613306565b91507fffffffffffffffffffffffffffffffffffffffffffffffffffffffffffffffff8214156142945761429361419d565b5b600182019050919050565b7f4e487b7100000000000000000000000000000000000000000000000000000000600052603160045260246000fdfea2646970667358221220ca6f458e7d48a96a7320bd39298f4035f38566116c2e78bfe24e3957a2d9b7c664736f6c634300080b0033",
  "immutableReferences": {},
  "source": "// SPDX-License-Identifier: MIT\npragma solidity >=0.4.22 <0.9.0;\n\nimport './ERC721.sol';\n\ncontract ERC721Enumerable is ERC721{\n    \n    //returns all commodity in a list\n    function totalSupply() public view override(ERC721) returns(uint256){\n        return super.totalSupply();\n    }\n    function totalCommodity() public override(ERC721) view returns(ERC721.Products[] memory){\n        return super.totalCommodity();\n    }\n    //returns all comodity by a farmer and their index\n    function tokenOfOwnerByIndex(address _owner, uint256 _index) public view override(ERC721) returns(ERC721.Products memory){\n        return super.tokenOfOwnerByIndex(_owner,_index);\n    }\n    function tokenByIndex(uint256 _index) public override(ERC721) view returns(ERC721.Products memory){\n        return super.tokenByIndex(_index);\n    }\n}",
  "sourcePath": "/home/ollie/Documents/vscodeprojects/decentralized_marketplace/src/contracts/ERC721Enumerable.sol",
  "compiler": {
    "name": "solc",
    "version": "0.8.11+commit.d7f03943.Emscripten.clang"
  },
  "schemaVersion": "3.4.4",
  "updatedAt": "2022-02-16T22:44:03.879Z",
  "devdoc": {
    "kind": "dev",
    "methods": {},
    "version": 1
  },
  "userdoc": {
    "kind": "user",
    "methods": {},
    "version": 1
  }
}